:020000040000fa
:080000000002040000000000f2
:020000040000fa
:100400002ff72200007f2400000188000000000078
:100410000c000700a05b2e00010020001100070067
:10042000000020000000e000020032000000020096
:1004300000000000badc0200000000000040da000a
:100440000000fe004440a90040f020000000e00051
:100450000300320000002000a00188004440a800f2
:100460000000060091018800800078000000eb0089
:1004700015003700e280400032a0b4009101ba00bc
:10048000e280400032a0b4009102ba00e280400055
:1004900032a0b4000002eb00472bde00f507b200eb
:1004a000602ce10004003a000059eb008301e900f0
:1004b000fdff3e00040037006128e100010032002a
:1004c0000082eb00040007001101ba000200e00006
:1004d000e8ff3a00000006003159ba008301e90044
:1004e0000c0032002159ba008301e90008003200f3
:1004f0000400e00003003a00e280400032a0b400b3
:10050000f5ff370011d9ba008301e900faff3a007c
:100510008100e800e180400032a0b4000000060045
:10052000ca330400010000000edd040000000000da
:10053000deaa04000000000044a90400000000003e
:1005400064a9040000000000f2aa040000000000fa
:10055000feaa040000000000d2a904000000000070
:10056000a6aa0400000000005cbb0400000000001c
:10057000b8b7040000000000c8b904000000000083
:1005800020b6040000000000a6b404000000000033
:1005900002b8040000000000e2b8040000000000ff
:1005a00070b5040000000000aaba040000000000ba
:1005b00014bc0400000000006c16040001000000e0
:1005c0001a170400010000000618040001000000d2
:1005d0006c180400010000008618040001000000ef
:1005e0009e180400010000005e19040001000000d4
:1005f0000642040001000000eebc04000000000000
:1006000036c204000000000086be040000000000a6
:100610001cc304000000000060d0040000000000c3
:1006200026890400000000009c490400010000002d
:10063000b249040001000000d84904000100000094
:10064000fa4904000100000010300400010000001d
:10065000aa30040001000000e8300400010000009e
:100660002831040001000000cc310400010000002a
:10067000ec01040001000000960a040001000000e3
:10068000c80a040001000000ee0a04000100000096
:10069000120b0400010000004e0b040001000000da
:1006a000dc0d0400010000004e0504000000000005
:1006b0003200f80091018800023b88000008bb006e
:1006c0000500fc0051052000313b8800a10a2000f4
:1006d000313b880061e7a800000000000000000036
:1006e0003200f900000006000400a10001003700fc
:1006f0000400a0003200f8009101880011002400dd
:10070000013b8800f10f20003208bb000400a70065
:10071000b20078000198bb008301e900faff3a00bb
:10072000680151000400a7006801510068005000f2
:100730001208bb00e2ff3700f30f20003200f80080
:100740009101880031002400013b88000208bb00b1
:100750000388bb00daff37003200f800003b880056
:10076000d7ff3700889fbe000004be0060538100a1
:100770000000e00001003200000001000800e0007d
:1007800001003a00585381000800be003102070002
:10079000000444001804e00004003a00e0a622002f
:1007a000505389000004eb00070037000800be002a
:1007b0003a020700000044001004e000010032008b
:1007c0000058eb0050538900080078004f04be0029
:1007d00000000600800178000001780031407800b8
:1007e000005978000004e000fcff3a0003007800a4
:1007f0000000060080007800010037000000e800db
:100800001004e000fdff3a00010050000000060067
:100810008001780000017800010037000201e80043
:100820001204e000fdff3a00020037000201e80078
:100830008100e80011407800004978000004e000e1
:10084000faff3a000300780000000600ec8747003a
:10085000889fbe008a9fbe008c9fbe008e1f7800be
:10086000f0b79f0081bf9f008204780000047800e9
:10087000010037000804e800184778000e00fb006c
:10088000180207000000e000faff3a00d0c2b300ef
:10089000804f57000500320000c0e900804f57002c
:1008a0000200320000477800010037000804e80029
:1008b0000900e00045003500e18f5400430032009c
:1008c00040022000808f540040003c000900e000fe
:1008d0000e003400f08f54001a003a0000c3b30039
:1008e000984f100016003a009840900080c7b3005f
:1008f00080cf50000300320080c5b30080cf50008d
:100900000f003a000884e8000e003700a90020001c
:1009100000c3b300984f10000a003a0098409000be
:1009200080c7b30080cf500004003200890020004f
:1009300080c5b30080cf500002003a000884e80070
:10094000090120000805780000c3b300010037004a
:100950000a05e8009a4f1000fdff32008a05780072
:100960006066b8000e003700907622000042520008
:10097000c4ef9f006149b9000c00be005306070098
:100980004fea97000401fb00cf91de008b05e800e1
:10099000ccb79f00ddb79f0000064100818649006b
:1009a0001b00fb00d70107008000780009017800d8
:1009b00090762200da010700000278000000e000d3
:1009c000e9ff3a008b0f540006003a000fb8970079
:1009d0000000e00029003200ffb097000108780015
:1009e000260037008a8055004074220060c07c00d9
:1009f0000000fb0000805000160033004240a900b8
:100a00000f003c004fe997000200fb00cf80de00a2
:100a10000000560081805e00800f5600818f5e00ce
:100a2000070039006149b900530607004fb197002c
:100a3000dfb19700820f5000838f5800050032000d
:100a400020022000405189000086eb008086eb00e8
:100a500005003700d0c2b300804f570002003a00b3
:100a600060061600e0861e008fb997000300e000c4
:100a7000030032008b097800010037006066b8007f
:100a80000c00be004f0778004f06be004f05be00a9
:100a90004f04be00cf00b10000000600881f7800a0
:100aa000020478009a000700080040004f04780014
:100ab000000006000000fa00881f7800000478009b
:100ac0003fb99700ea81570080007800e054200089
:100ad000a3010700800078000000e000020035005c
:100ae0000040eb0000f47800010078004f0478002b
:100af0000080fa0000000600040037000204e00055
:100b00000a0032000000e8008100e800104178008f
:100b1000914f5100f9ff32000081eb001040780046
:100b2000914f500004003900020037000001eb0033
:100b300001003700120020000200780000000600cb
:100b4000881f7800304e81000000e0000100320074
:100b500000000100004e81000000e00001003200b2
:100b600000000100302b81000000e0000100320095
:100b700000000100002b81000000e00001003200b5
:100b800000000100809c22001004e00026003a00d2
:100b9000104e8100214e81000004eb00d26026003f
:100ba00093012000c9050700f2352f00e3c623009a
:100bb00000004100818049000804e800e80f54006b
:100bc000f6ff3a00104e8900214e89008856220017
:100bd000d260260093012000104e8100214e81003a
:100be000ba050700f2352f00e3c6230000004100dc
:100bf00081804900104e8900214e8900009cbe0072
:100c0000805e2200800f5400f1ff3a00202f810007
:100c1000312f8100102b8900212b890011c0b300d6
:100c2000809c220001487800d260260093012000b9
:100c3000104e8100214e8100a4050700f2352f00df
:100c4000e3c623000000410081804900104e890066
:100c5000214e890022562200120178007f01610096
:100c60004211dd0083562200030141001202be0042
:100c7000142b8900252b89000089be00102b8100d0
:100c8000212b81004008de0000f0a1004f04780015
:100c900000000600881f780000047800304e8100b4
:100ca0000000e0000100320000000100809c2200f2
:100cb0000048eb00004e81000000e000010032001f
:100cc000000001006140b800104e8900214e8900eb
:100cd0004f047800000006008001eb000800370098
:100ce000e342780063c278008301e80084cf5200b9
:100cf000030032000080eb00040039001000050002
:100d0000828f5100f6ff3a000000eb000000060061
:100d10008001eb000200370061f079008301e800f8
:100d2000828f5100fcff3a000000060004003700eb
:100d30000204e00001003a00000005000000e800a5
:100d400010417800814f5100f9ff3a000000060081
:100d5000889fbe0081047800114478000804e000f8
:100d600009003a000c003700800178000901780082
:100d7000d24078000104e00007003200d3cf100019
:100d8000fbff32000000e8008800fb00e7ff0700df
:100d90000000e000f4ff3a004f04be00000006002f
:100da000800178008002eb00010037008459780050
:100db00005035100828f52000900320065c278009d
:100dc0008502e8000404e000f8ff3a0083007800a0
:100dd000068141008058eb00828f5000fdff3a00f1
:100de000000006008001eb000200370081717800ee
:100df0008301e800828f5100fcff3a0000000600ea
:100e00000000e000310032008080e90091027800ab
:100e1000e38f52002d0036000508a3002b003a0096
:100e2000625081000200e00002003200828f500018
:100e30000400310002087800615089001600370074
:100e400003017800920190000300e00002003200ec
:100e5000818f5100faff390012027800040041002e
:100e6000808f500019003900810f500003003a00b4
:100e70000509420082007800070037000300e00007
:100e80000300320005804000808f51000f003900c0
:100e90009300980011019800110190000200e000f9
:100ea0000a00320011804000820f500007003a0013
:100eb000a0a022000008eb001100900011017800b2
:100ec000900841001000900090009800000006007b
:100ed000889fbe00e30440000900a100808f5400f9
:100ee0004a003600e38f540001003e004900200014
:100ef000525081000200e0000200320082007800bf
:100f00000c003700c1a0220003003700908f54006e
:100f1000230036008080e800110078000000e00027
:100f2000faff3a000f003700908f54001c00360083
:100f30008080e800110078000000e000faff3a002d
:100f400012017800c1a0220003003700908f5400e6
:100f5000130036008080e80011007800820f5000f6
:100f6000faff3a0048508100890f54000100310017
:100f70000904780008007800320107000000e00052
:100f800004003a00890f5400200032000804d10008
:100f9000f5ff37000818780099ff0700d4ff3700e5
:100fa000110178009201780064805100890f50008f
:100fb000030031001200900080087800070037001d
:100fc0000900410080087800920190001300980009
:100fd0001100780012881400090978009100780047
:100fe0000100e00005003200110090000000e00068
:100ff000020032000180e800010037000000eb0031
:10100000505089000280e800010037000000eb002a
:101010004f04be0000000600881f78008a9fbe00b3
:101020000185b9000a007800a9ff070000047800d4
:101030000000e000030032000a0178008000eb00ad
:1010400068ff0700080078004f05be004f047800d5
:1010500000000600000278000b0037000101780054
:10106000924178000304e00002003a0004005000be
:101070000000060083cf5200020032000201e800a7
:10108000f7ff37000000e800904278000504e00018
:10109000f2ff3a0004005000000006000002780051
:1010a0000700370083cf52000a0032000201e80037
:1010b000924178000304e000faff3a000000e800e3
:1010c000904278000504e00004003200010178003d
:1010d000f7ff370004005000000006000400500035
:1010e000000006006900e100040035006d00e10029
:1010f000030034000002b1000100320000000500ce
:1011000010000500800078001104b10003003500d4
:101110009101b10001003c000050a0000000060059
:101120008001eb00040037008301e80090cf10003d
:10113000040032000000e800828f5100faff3a00fc
:101140000000eb0000000600305181000000e000cc
:10115000010032000000010080a222000000060011
:101160006200fa00889fbe008a9fbe000004be0095
:10117000020578008300780060f92f000f0040001e
:10118000b700070088979f0099979f000000eb0029
:10119000a09f9f009a4578000b80fb000000ea00aa
:1011a000cf04de0050c2b30080cf550002003200f1
:1011b00009047800010037000904e9000800e00094
:1011c0000b0034001f909700080178008a00780017
:1011d0008f9197000300010090979f000000e000ae
:1011e000930032002f98970000004400a09f9f00ba
:1011f0000905450050c2b30080cf550004003200fd
:101200000b04e000e3ff3a002f98970089003700b5
:101210000000eb00809f9f00f0979f00e0979f00e9
:10122000d0979f00c0979f00b0979f00c09f9f00de
:1012300009003700c09722000080500000004000e5
:1012400001972200e10078004f989700010070009c
:10125000c09f9f000a05e8001a4478008800fb0040
:10126000c0972200b1fe0700800078000000e00077
:10127000f0ff3a00a0c2b300804f54000e003a00c5
:10128000bf8897000180e900b08f9f0010007800b0
:10129000b09f9f000000e00005003d000000ea0054
:1012a000b09f9f004f9897000020a000c09f9f0014
:1012b0000a05e80010003700b19f9f0003fd2f00d2
:1012c000f4ff2700080037003f989700840f500074
:1012d000040032006a00b900000041000300400031
:1012e000b09f9f000a05e8001a01fb0003004100bf
:1012f000e90f5000f4ff3600e0c2b3009a4f10002f
:10130000040032000080eb00909f9f008a04780068
:101310001c0037008a04e800a0c2b300994f1000f7
:1013200007003a00bf8897000180e900b08f9f0056
:1013300010007800909f9f008a84e8001100370019
:101340000000eb00909f9f0003fd2f00f4ff27009b
:10135000080037001f989700840f500004003200e7
:101360006a00b9000000410003004000909f9f0008
:101370008904e8001901fb0003004100e90f500057
:10138000f4ff3600194478008800fb00209e2200fc
:1013900066fe07000000e00002003a00004478000a
:1013a000010037008904e800a87f9f0080c6b300d1
:1013b000804f540004003a00994f14000a003a008c
:1013c0006640500006003700c0c6b300804f54008e
:1013d00005003a00994f140003003a0065404000b0
:1013e000a07f9f008904e8000905e800cbfb2f00df
:1013f0008f8545001901fb0060f92f000f004000a8
:101400000084e8008b0178008000780008007800f4
:10141000180007000000e00005003a008b0078008b
:1014200008007800560107000000e00059ff3d0069
:101430000080eb004f05be004f04be000080fa00a4
:10144000000006000000e00003003400a5030700d0
:10145000e10f400001003a000000eb000000060030
:101460000200fa00f1bf9f00010878000080fa0036
:1014700000000600889fbe008a1f780000047800e4
:10148000010278008244780003057800e0c6b300ca
:10149000804f5100d200320015003c006b405000dc
:1014a000804f5100240032000a003c007040500080
:1014b000804f51000f01320065404000804f5100c5
:1014c0007400320050c2b300804f510020013a0036
:1014d0001c01370040c6b300804f51001b00320092
:1014e00065404000804f510019013a001700370055
:1014f00030c7b300804f5100fe00320007003c00af
:1015000064405000804f5100620032000040e8000b
:10151000804f51000e013a00e700370050c7b3007a
:10152000804f51005b00320063404000804f51000b
:1015300007013a00570037009180e900010a78005e
:10154000780090009171780007013700a860900042
:10155000c0c6b30080cf50000a003a009400780063
:1015600064805000000a78001000be004f89de0041
:10157000cf91de000002be000203780082037800f3
:101580001300370010c7b30080cf500003003200b3
:10159000a0c6b30080cf500006003a009400780047
:1015a00068805000000a78003002be002003be00b0
:1015b000070037001480e900000a78001000780066
:1015c00000027800cfa2de000503780086037800d1
:1015d000049cbe000694be00a860900080c6b300c4
:1015e00080cf50000e00320020c6b30080cf5000e4
:1015f00005003a000400fb00cf80de000101780006
:10160000820178000a00370040c7b30080cf500045
:10161000030032006640400080cf500006003a00d0
:1016200004007800cf80de0001017800820178009c
:10163000009cbe000294be003800be002801be001f
:10164000e00f5000e08f5800e00f5900e08f590084
:1016500003003d0078009000d1c2b3000a003700bb
:10166000081090000018a3000300320078009000da
:10167000b1c2b300040037000008a30053003200d9
:101680007800900001c2b300017578000000e80006
:101690004d003700a8609000c0c6b30080cf500056
:1016a00006003a009400780064805000000a780038
:1016b0001002be006033b8001300370010c7b3003b
:1016c00080cf500003003200a0c6b30080cf50008e
:1016d00006003a009400780068805000000a780004
:1016e0003002be002003be00070037001480e9006e
:1016f000000a780010007800000278000500200041
:101700000600200007002000049cbe000694be00d6
:10171000a860900080c6b30080cf50000e00320059
:1017200020c6b30080cf500005003a000480fb00c3
:101730000100200002002000030020000a00370002
:1017400040c7b30080cf5000030032006640400025
:1017500080cf500006003a0004007800010020000d
:101760000200200003002000009cbe000294be0086
:10177000081090000038a300140032003800be00aa
:101780002801be00e00f5000e08f5800e00f590024
:10179000e08f59000d00320080c7b30080cf5400a5
:1017a0000300320080c5b30080cf540007003a0028
:1017b0007800900001c3b300017578008000e80054
:1017c00009f578000080e800700498007800900027
:1017d000000045006004980089407800420037000e
:1017e000a8609000c0c6b30080cf50002500320032
:1017f0000a003c006440500080cf500028003200b6
:1018000000c0e80080cf5000140032006840500053
:1018100080cf500022003a000a00370040c7b300d2
:1018200080cf50001e0032006640400080cf500044
:101830001b0032006940500080cf500018003a0071
:10184000060037001480e900000a780010007800d4
:10185000485c900008487800450037001480e90093
:10186000000a78001002780068089000cf80de003f
:101870000101780082017800009abe000292be0049
:101880003b0037001480e900000a7800100178005e
:1018900068089000cf80de000089be003400370069
:1018a0001480e900000a780010007800680c9000ad
:1018b000080878002e0037001180e90080087800c1
:1018c00010007800cf80de000101780082017800ee
:1018d000009cbe000294be0078009000000045000d
:1018e0006004980081c7b30008007800ee0007008c
:1018f0001f0037001480e900000a7800100078000b
:1019000060049800580990000200e00002003d00c9
:10191000b8fb0700090037008000eb0000fe07005d
:10192000800078000000e0000300320068009000b2
:10193000008050000100370058089000100c9800fb
:101940000b00370078009000027578000600370021
:1019500078009000800045000904e00001003a0092
:1019600059c2b300894878000000e800700498006c
:101970000000eb004f0578004f04be000000060099
:101980000400fa00889fbe008a9fbe008c1f78006a
:10199000000478000106780070089000f8009000bc
:1019a0000100500088089000010050009808900045
:1019b00001005000a808900001005000b8089000f5
:1019c00001005000c808900081055000000222006c
:1019d00090bf9f0000032300a0bf9f00081090004d
:1019e0000028a30018003a000b00e00016003400a5
:1019f0008b04780009057800e28f5400020036005d
:101a00002a002000020037000900e0000b0034002b
:101a100058009000c80190000a017800ee8057003d
:101a200003000100500498000000e000960032001e
:101a30006808900000004500600c98008a845400fb
:101a40004240a900ebff3c00780190000200e0005a
:101a50000b00340058009000c80190008c00780002
:101a600003000100500498000000e00086003200ee
:101a700068089000f800900001004000600c980099
:101a8000880c90000900e00015003400090578007a
:101a9000e28f5400020036002a00200002003700c6
:101aa0000900e0000b00340058009000c8019000cd
:101ab0000a017800ec8057000300010050049800f0
:101ac0000000e0007000320068089000000045004f
:101ad000600c98008a8454004240a900ebff3c004f
:101ae000180990000200e0000b003400e8009000ac
:101af00058009000c80190000300010050049800b5
:101b00000000e00060003200680890009808900033
:101b100001004000600c9800a80c90000900e00053
:101b20001500340009057800e28f540002003600e9
:101b30002a002000020037000900e0000b003400fa
:101b400058009000c80190000a017800ec8057000e
:101b500003000100500498000000e0004a00320039
:101b60006808900000004500600c98008a845400ca
:101b70004240a900ebff3c00380990000200e00061
:101b80000d003400e80090001808900080804000ac
:101b900058009000c8019000030001005004980014
:101ba0000000e0003800320068089000b80890009b
:101bb00001004000600c9800c80c90000900e00093
:101bc0001500340009057800e28f54000200360049
:101bd0002a002000020037000900e0000b0034005a
:101be00058009000c80190000a017800ec8057006e
:101bf00003000100500498000000e00022003200c1
:101c00006808900000004500600c98008a84540029
:101c10004240a900ebff3c00081090000028a30000
:101c20001b0032000b00e000190034008b04780028
:101c300009057800e28f5400020036002a002000d7
:101c4000020037000900e0000b003400580090004b
:101c5000c80190000a017800ee80570003000100df
:101c6000500498000000e00007003200680890006f
:101c700000004500600c98008a8454004240a9008e
:101c800003003400eaff37000080eb00010037005a
:101c90000000eb004f0678004f05be004f04be0069
:101ca0000080fa00000006002f03b000889fbe00ed
:101cb0008a9fbe008c9fbe008e1f780000077800b0
:101cc000d08e2200c0b79f0080c5b30080cf5000e7
:101cd00008003200c28d2200c2b79f00774040004a
:101ce00080cf500003003a0083002000b3b79f006c
:101cf0000a00370080c7b30080cf500005003200d3
:101d0000a4002000b4b79f0080c5b30080cf50006e
:101d100002003a0005012000b5b79f003e04be0056
:101d20002e05be0040c6b30080cf50000300320035
:101d30006540400080cf50000b003a00e00f540097
:101d4000e08f5c00e00f5d00e08f5d0006003d006d
:101d50006000b8006011b800080450008984580081
:101d60000a0559008b855900bfb39700e88f5300cf
:101d700003003200f08f530045003a0002003700a4
:101d8000360020000100370046002000e00f54001c
:101d9000e08f5c00e00f5d00e08f5d0005003a0021
:101da0005e08900081012000a1b79f000000e000c4
:101db000080032003fb197000200e900080060000f
:101dc000cfb197006340780090df9f00740120003e
:101dd000a4b79f00860278008502e9000500330061
:101de0008b05d1000a85d3008984d3000884d300f1
:101df000f9ff3700089fbe000a97be00afb39700f7
:101e00000700e90021fc2f008f8040000082400085
:101e10003fb197008202e90012003700afb397008c
:101e20008703e900a7b79f0000806200cfb097004a
:101e3000615278003e00be002e01be00860378008d
:101e40008703e900050033008381d1000281d300bc
:101e50008180d3000080d300f9ff3700009fbe00cf
:101e60000297be003e00be002e01be00e00f5000f3
:101e7000e08f5800e00f5900e08f5900d600340081
:101e8000afb397000700e000e4ff3c00d20037004a
:101e9000ae60900080c6b30080cf50000b003200cf
:101ea00006003c000104e0000800320066405000db
:101eb00080cf500073003a0004003700c0c6b30062
:101ec00080cf50006f003a003100370008017800e1
:101ed0000800e00005003a005e0890008101200043
:101ee000a1b79f000000e00009003200bfb19700d9
:101ef000110009000381d8008000fd004fb2970057
:101f00006440780090df9f0075012000a5b79f0016
:101f1000bfb39700110009000781d8008001780045
:101f2000afb097000100e90022fc2f000f01410033
:101f3000000241000c003700bfb2970011000900f9
:101f40008501d80000017800afb397008703e9004e
:101f5000a7b79f000590b90000805100cfb097004f
:101f600061527800820178000300e0000300340031
:101f70002fb197000200e000efff3c000300780063
:101f8000cf80de0001017800820178003a0037003e
:101f90000806be00e00f5400e08f5c0005003a0028
:101fa0005e08900083012000a3b79f000000e000be
:101fb000090032003fb297006121b9000c00be0059
:101fc00052030700cfb297006540780090df9f0072
:101fd00077012000a7b79f003fb297006121b900a9
:101fe0000c00be00e40007000006be00afb2970080
:101ff0000500e90027fc2f008f8343008083430006
:1020000097b79f00110037003fb197006114b900e6
:102010000801be000c00be003f0307000005be0023
:10202000afb197008301e900a3b79f000801be008c
:10203000a6000700000056001fb29700cfb297001d
:102040006552780094b79f000a06be00e00f560064
:10205000e08f5e0003003400afb397000700e0009c
:10206000e9ff3c004feade00cfa2de000c00be001c
:102070000401780084017800009fbe000297be0032
:1020800055003700e00f5400e08f5c00e00f5d006a
:10209000e08f5d0005003a005e089000810120009d
:1020a000a1b79f000000e0000d0032003fb1970093
:1020b00002027800cfa2de000503780086037800d4
:1020c0000800be000a01be00580207004fb2970088
:1020d0006440780090df9f0075012000a5b79f0045
:1020e0003fb1970002027800cfa2de00050378001e
:1020f000860378000800be000a01be004402070003
:10210000009fbe000297be00afb197000300e90038
:1021100024fc2f000f02420000064200200037007e
:10212000bfb2970005047800cfc4de00090578002f
:102130008a0578000802be000a03be005fa8970067
:10214000efa897007fa997008fb197003b02070087
:10215000d0b79f00e1b79f00f2b79f0083bf9f00f9
:10216000afb397008703e900a7b79f000802be003e
:102170000a03be00b70207005faa970000005200e2
:10218000cfb29700655678005fb09700efb0970028
:102190007fb197008fb99700009fbe000297be00e5
:1021a0003e00be002e01be00d0af9f00e1af9f00f9
:1021b000f2af9f0083b79f00e00f5000e08f580000
:1021c000e00f5900e08f590003003400afb09700d2
:1021d0000100e000d2ff3c003fb19700e80f510042
:1021e00013003a000e1090000038a30010003200d7
:1021f000afb19700f78f510006003e0024fc2f007e
:102200000f0242008300420000c3b300914f100050
:1022100007003200afb297008502e900a5b79f0022
:1022200000c3b30027fc2f008f83430080f37a00a4
:10223000afb1970078811100120f98006e009000e6
:1022400024fc2f000f02420083004200b0fa070076
:102250001e0990005e089000800f510006003d00ae
:1022600002005000000f98000e1090000040a100e6
:10227000001798000f0037000000e0000d003d003f
:102280000e10900074006000f00f500009003a003a
:102290007e089000fe009000010050008e08900023
:1022a00001005000020050004240a900010034002b
:1022b000000f98004f0778004f06be004f05be0084
:1022c0004f04be002f03b10000000600020ab9004f
:1022d000001bb9000200b8008100420081004300e9
:1022e00000000600889fbe008004780080538100b3
:1022f0000000e00003003a00100007000000e000ca
:102300000a003500805381000900e00002003a0015
:10231000000478000600370000047800090040003f
:10232000060007000000e00001003d000084eb0013
:10233000080078004f04be0000000600800078000e
:102340000000e00004003a0020a72200805389002a
:1023500001017800060037000081eb0020f7220021
:10236000808f500002003e00815389000001eb0085
:1023700002007800000006006022b800060220007b
:102380000000d0008180d2000482d2008582d20079
:102390000000a0000202520083825a0003003100b4
:1023a0000202420083824a000000a1000603e90005
:1023b000f3ff3a0000000600889fbe008a9fbe001f
:1023c0008c1f7800630207006a02330003866c00ea
:1023d0006450e1002e0032006420e100330032003e
:1023e0006150e1002f0032006120e1003100320035
:1023f00085855500eb07b000090020000804200087
:10240000050037000804440089844c000a003100ac
:102410000603430087834b000001530081815b006a
:10242000f8ff33000203be000800a00008044400c7
:1024300089844c00f6ff3900c639dd008301730042
:1024400001003200130020008904d1000884d30069
:102450000998a300050032000800a7000300a000af
:102460008904d1000884d3008b05e8008904d100d9
:102470000884d3000001eb000281d2004d02070066
:1024800001f0a1000cf0a70001f0a000420237000b
:102490006420e100440232000801be000200be00d8
:1024a000f7ff37006120e1003f0232006000b80012
:1024b000f3ff37000000200001f82700f0ff37008d
:1024c000f4ff2f00610237000001be007a0207000e
:1024d0000470a70003f0a10003f8a30013003a0062
:1024e0006509b10010003200090035006928e100db
:1024f0000200350001002800000005000000400037
:10250000818048008502e900fcff3a0000000600d7
:10251000f88f4200050035008100d1000080d30013
:102520008502e800fcff3a00000006008000eb0096
:1025300000000500889fbe008a9fbe00010578004c
:102540000100e0000400350008003c000000e0004d
:10255000200032000500370060001000e080180005
:1025600002003b0001f02c001a0037000004be00fe
:102570006011b8006b0920000982cf000200390009
:102580000882cf000441b000694252000e003200c0
:1025900008003b0082817100610164008904d10060
:1025a0000884d3008b05e8000442e800f9ff3a00f4
:1025b000050037000804440089844c008b05e900bd
:1025c0000442e900fbff3a00fa0107000af0a70005
:1025d00001f0a0004f05be004f04be000000060041
:1025e00003f0a200889fbe008a9fbe008c1f780067
:1025f000d8010700df0133006450e1004f003200d2
:102600006420e1005200320003826c0007003b00ae
:102610000905d0000306d000820f54000c065d00af
:1026200002003900020032008901780003067800b8
:102630008582550004003d000003fd008103fd007c
:102640008502ea008b854200840f720002003b0085
:1026500060001000e08018006011b8000005eb0079
:102660007a28e1000a00390006007800c75ddd0025
:10267000f707b200878075002d0037008281710056
:102680000a017800610560008180d1000080d300dc
:102690008502e900f9ff3b000604400087844800fa
:1026a00002003b0060041400e0841c000988a300c1
:1026b000070032008a81710082817100610164002b
:1026c0008904d1000884d3008b05e8001700370087
:1026d0000978a30013003a000b00e0001300340057
:1026e0008b05e9000804440089844c000a44740006
:1026f0000978a3000d003a000b00e0000700340049
:102700008b05e9000804440089844c0001003a006c
:102710000b0020000978a300f7ff32000001eb0056
:1027200002003700828171000a017800a1010700d0
:102730000cf0a70001f0a000970137006420e10031
:1027400002003a00838f6c00970133000801be003d
:102750000200be0090013700889fbe008a9fbe0025
:102760008c1f78007b0107008201330003866c0018
:102770006450e100240032006420e10027003200b0
:102780006150e100220032006120e10021003200ae
:102790008b854200eb07b1000134b800003ab80065
:1027a0000804420089844a00013ab8000030b800a9
:1027b0008880400009014a00040033000000400006
:1027c00081804800020149008b05e900c909dd004c
:1027d000830170000100320013002000c814de00e5
:1027e0004814dd004709de001200b200c808de0010
:1027f000088470006f01070001f0a1000cf0a70031
:1028000001f0a000640137006120e10066013200a0
:102810000801be000200be00f7ff37006150e10072
:10282000fcff3a0060013700881f78000004780040
:102830005001be004000be000400400085804800fa
:102840000601490087814900009cbe000294be0039
:102850000400e1000588e1000690e1000798e1002e
:1028600002003100680044001008e8004f047800be
:1028700000000600f4874700889fbe008a9fbe00c4
:102880008c9fbe008e1f78000205be000004be00b3
:10289000d4b79f00e5b79f00f6b79f0087bf9f00a2
:1028a0000000eb00c0b79f00b0b79f00a0b79f002b
:1028b00090b79f0080b79f000d042000bfb0970025
:1028c0004fb09700000140000000e0000f003d0005
:1028d0004f08de0000007100c0b79f009e00070097
:1028e00001003d0012002000a100070001003d0092
:1028f00012002000a6000700b1000700b600070084
:102900000f004000c8ff0700220037004f08de001c
:1029100000067100ccb79f008f00070001003d004a
:10292000120020009200070001003d00120020006c
:1029300097000700a20007000fb297009fb2970010
:102940002fb39700bfb39700a90007000000520003
:1029500081805a0002015b0083815b0080b79f0089
:1029600091b79f00a2b79f00b3b79f000007eb008d
:102970009f0007000020e10001a8e10002b0e10093
:1029800003b8e100010031001e0020000e005600d7
:10299000c0b79f004fb297000400e0000700350069
:1029a00010002000010020006011b8000804700031
:1029b000898470000a0571008b8571008d06e9001d
:1029c000beff3a000400e00003003d008200070063
:1029d0000f00400094ff07004fa897000000e000a0
:1029e00004003a000fb497009fb497002fb59700ea
:1029f000bfb59700940007004f0778004f06be0050
:102a00004f05be004f04be004f01b100000006009c
:102a1000881f780018002000881f780095ff0700a5
:102a20008f87e9004f04780000000600801feb004c
:102a300090ff07008f87e90000000600889fbe0016
:102a40008a9fbe008c1f78006e00070007003d00c3
:102a500073000700e00f5b00e08f5b0007003d00a4
:102a6000320007000006eb000400370034000700c6
:102a700002003d002a0007001c0020007200070031
:102a8000e3ff07000203be000002be000c00e000ee
:102a900001003200220007000400be000601be0053
:102aa0004f0678004f05be004f04be000000060030
:102ab000889fbe008a9fbe008c1f780051000700cf
:102ac00005003d0056000700e00f5b00e08f5b0053
:102ad00006003d00040037001900070003003d0018
:102ae0006000b8006011b800100007005600070031
:102af000ceff07000203be000002be000c00e00093
:102b000001003200060007000400be000601be00fe
:102b10004f0678004f05be004f04be0000000600bf
:102b20006000b8006011b8000000370004025000d7
:102b3000858258000603590087835900000006006b
:102b40000006eb00e00f5200e08f5a00e00f5b0040
:102b5000e08f5b00000006000180400090b79f00fe
:102b60000001eb008fb097000100e00000000600bc
:102b70000200700090b79f000180400080b79f0066
:102b80000001eb00ffa897000100e0000000060034
:102b90000200700080b79f00018040006faa97007c
:102ba000cf20de0001007000f0af9f000402420061
:102bb000250007004f18de0000027200000006002a
:102bc000e4af9f000804440089844c000a054d00ce
:102bd0008b854d00000006003fb29700cfb29700f2
:102be0005fb39700efb3970000fe2f0000000600d0
:102bf0003fb09700cfb097005fb19700efb197005b
:102c0000000006000205be000004be00e00f5000f8
:102c1000e08f5800e00f5900e08f590000000600d7
:102c20006000b8006011b8000804500089845800a2
:102c30000a0559008b8559001c002000e00f520046
:102c4000e08f5a00000006000800be000a01be0026
:102c500000000600889fbe008a9fbe008c1f78007f
:102c60000205be000004be000006eb00e00f5000ad
:102c7000e08f5800e00f5900e08f590007003d0039
:102c80006000b8006011b800080450008984580042
:102c90000a0559008b8559001c002000e00f5200e6
:102ca000e08f5a00e00f5b00e08f5b0002003d0008
:102cb0000f0007000c00a2000800be000a01be00c1
:102cc000920007000203be000002be000c00e000fc
:102cd00001003200060007000400be000601be002d
:102ce0004f0678004f05be004f04be0000000600ee
:102cf0006000b8006011b8000402500085825800de
:102d00000603590087835900000006009afd07005a
:102d10000400be0000000600839f68000100e00080
:102d200002003d0060001000e08018000300e00099
:102d300002003d0060011100e08119008efd0700d6
:102d40004f00e00002003b0060001000e08018002f
:102d5000000006000004be00570007000003be008c
:102d60000405be000200be0053000700844f75003a
:102d7000000006000200be006450e10005003600bd
:102d80006420e100020036000968a30001003a0057
:102d90000800be000160a0004f0678004f05be008d
:102da0004f04be0000000600f0ff2f00f1ff2700d7
:102db000f9ff370081002000618055000b003d00c5
:102dc0000b00200061fe2f000100e1001d00340017
:102dd00082817100610164008904d1000884d300fc
:102de0000000e800faff3a00710020006100640072
:102df000030070000200600009003200610444001a
:102e0000e0844c000988a500050032008b05e8002d
:102e10006808e10002003a008904d1000884d30068
:102e2000f20f20000258e10005003d00c75ddd0003
:102e3000f907b200898075000800780000000600dc
:102e40000bf827008b00780000000500889fbe006b
:102e50008a9fbe00841f7800beff07004f007800e5
:102e600011003300f0ff2f00838f6c0006003b0041
:102e7000040565000a00a7000800370009f0a60055
:102e80001000200008003700820f5400838f5c0080
:102e9000030039001000200001003e000000200067
:102ea00009f0a7000000ea004f05be004f04be0075
:102eb0000000e00000000600c70ade00f107b200d3
:102ec000f50fb20008003200e1cf420002003200ec
:102ed0000170a00024000500810f70000100320085
:102ee0000408050044000500810f700002003a004c
:102ef000140005008502e9000000400081c0480080
:102f0000fcff3b000170a00024000500889fbe006c
:102f10008a9fbe008c9fbe000404b8000506b8005e
:102f20008904460060854e000606b8000a05460082
:102f3000e0854e000706b8008b054600040eb80079
:102f4000890446000a854e00e0854d00050eb80054
:102f50000a0546008b854e00060eb8008b0546001c
:102f60000416b8000a0546008b854e000516b80009
:102f70008b054600041eb8008b0546000800be0005
:102f80000a01be004f06be004f05be004f04be0042
:042f90000000060037
:020000040000fa
:020000040005f5
:0457f800eefa0000c5
:020000040000fa
:020000040005f5
:0457fc007f3e0000ec
:020000040000fa
:100008003e3701006837010092370100bc37010014
:10001800e63701003e3701003e3701003e37010058
:100028003e37010076f400003e370100cc3d010068
:100038003e370100b0f400003e3701003e370100b2
:100048003e3701003e3701003e3701000c37010002
:100058003e370100044b00003e3701003e370100e7
:100068003e3701003e3701003e3701003e370100b0
:100078009e4801003e3701003e3701003e3701002f
:100088003e3701003e3701003e3701003e37010090
:10009800883c0100103801002c3701003e37010070
:1000a8003e3701003e3701003e3701003e37010070
:1000b8003e370100caf40000f2f400000cf500001d
:1000c80034f500003e3701003e3701003e3701009d
:1000d8003e3701003e3701003e3701003e37010040
:1000e8003e3701003e3701003e3701003e37010030
:1000f8003e37010038380100603801003e37010002
:100108003e3701003e3701003e3701003e3701000f
:100118003e3701003e3701003e3701003e370100ff
:100128003e3701003e3701003e3701003e370100ef
:100138003e3701003e3701003e3701003e370100df
:100148003e3701003e3701003e3701003e370100cf
:100158003e3701003e3701003e3701003e370100bf
:100168003e3701003e370100323701003e370100bb
:100178003e3701003e3701003e3701003e3701009f
:10018800383701003e3701003e3701003e37010095
:100198003e3701003e3701003e3701003e3701007f
:1001a8003e3701003e3701003e3701003e3701006f
:1001b8003e3701003e3701003e3701003e3701005f
:1001c8003e3701003e3701003e3701003e3701004f
:1001d8003e3701003e3701003e3701003e3701003f
:1001e8003e3701003e3701003e3701003e3701002f
:0801f8003e3701003e37010013
:020000040000fa
:100208003e3701006837010092370100bc37010012
:10021800e63701003e3701003e3701003e37010056
:100228003e37010076f400003e370100cc3d010066
:100238003e370100b0f400003e3701003e370100b0
:100248003e3701003e3701003e3701000c37010000
:100258003e370100044b00003e3701003e370100e5
:100268003e3701003e3701003e3701003e370100ae
:100278009e4801003e3701003e3701003e3701002d
:100288003e3701003e3701003e3701003e3701008e
:10029800883c0100103801002c3701003e3701006e
:1002a8003e3701003e3701003e3701003e3701006e
:1002b8003e370100caf40000f2f400000cf500001b
:1002c80034f500003e3701003e3701003e3701009b
:1002d8003e3701003e3701003e3701003e3701003e
:1002e8003e3701003e3701003e3701003e3701002e
:1002f8003e37010038380100603801003e37010000
:100308003e3701003e3701003e3701003e3701000d
:100318003e3701003e3701003e3701003e370100fd
:100328003e3701003e3701003e3701003e370100ed
:100338003e3701003e3701003e3701003e370100dd
:100348003e3701003e3701003e3701003e370100cd
:100358003e3701003e3701003e3701003e370100bd
:100368003e3701003e370100323701003e370100b9
:100378003e3701003e3701003e3701003e3701009d
:10038800383701003e3701003e3701003e37010093
:100398003e3701003e3701003e3701003e3701007d
:1003a8003e3701003e3701003e3701003e3701006d
:1003b8003e3701003e3701003e3701003e3701005d
:1003c8003e3701003e3701003e3701003e3701004d
:1003d8003e3701003e3701003e3701003e3701003d
:1003e8003e3701003e3701003e3701003e3701002d
:0803f8003e3701003e37010011
:020000040000fa
:102f94004e5500004c4c000000570000465f0000f6
:102fa4004a4f0000494e00005f46000041490000be
:102fb4004c5500005245000000570000465f0000d9
:102fc4004155000054480000454e0000544900009b
:102fd40043410000544900004f4e00005f4600008a
:102fe400414900004c5500005245000000570000c4
:102ff400465f000041530000534f00004349000066
:1030040041540000494f00004e5f0000464100005b
:10301400494c00005552000045000000574600008e
:103024005f570000455000005f480000414e00001b
:1030340044530000484100004b4500005f46000037
:10304400414900004c550000524500000057000063
:10305400465f0000505300004b5f000043410000f6
:103064004c430000554c000041540000494f0000ff
:103074004e5f000046410000494c000055520000dc
:1030840045000000574600005f500000534b00000d
:103094005f480000414e00004453000048410000d6
:1030a4004b4500005f460000414900004c550000bc
:1030b4005245000000570000465f000041440000f4
:1030c400484f0000435f00004a4f0000494e000093
:1030d4005f460000414900004c5500005245000085
:1030e40000570000465f00005345000043550000b0
:1030f40052490000545900005f4d0000495300003c
:103104004d41000054430000485f00004641000068
:10311400494c00005552000045000000574600008d
:103124005f4e00004f5f00005355000049540000fb
:10313400414200004c4500005f410000505f000028
:10314400464f0000554e0000445f00004641000019
:10315400494c00005552000045000000574600004d
:103164005f52000045540000525900005f460000c1
:103174004f52000045560000455200005f4e0000cb
:103184004f5400005f53000055500000504f0000a2
:1031940052540000454400005f46000041490000cd
:1031a4004c5500005245000000570000465f0000e7
:1031b4004c4900004e4b00005f4c00004f53000090
:1031c4005400000000570000465f00005253000006
:1031d4004e5f00004d49000058450000445f000068
:1031e4004d4f0000444500005f4e00004f54000066
:1031f4005f53000055500000504f0000525400002f
:103204004544000000570000465f0000524500009e
:10321400435600005f44000045410000555400003f
:1032240048000000574600005f520000454300007c
:10323400565f00004449000053410000535300000e
:103244004f43000000570000465f00005750000045
:10325400535f000046410000494c000055520000f5
:1032640045000000574600005f5000003250000047
:103274005f460000414900004c55000052450000e3
:1032840000570000465f00004c4900004e4b000010
:103294005f4400004f5700004e00000041730000df
:1032a400736f00006369000061740000696f0000bf
:1032b4006e20000046610000696c00007572000019
:1032c40065000000574600005f42000045410000d1
:1032d400434f00004e5f0000544900004d4500007c
:1032e4004f55000054000000574600005f440000a2
:1032f4004541000055540000485f0000524500005d
:1033040043450000495600004544000000570000b2
:10331400465f00004449000053410000535300003d
:103324004f43000049410000544500005f52000033
:103334004543000045490000564500004400000094
:10334400574600005f5400004b490000505f0000e6
:103354004d490000435f000046410000494c000015
:1033640055520000450000004d610000696e0000e8
:10337400446500006d6f00002e63000000570000dc
:10338400465f0000436f00006e660000696700003e
:103394002e63000000570000465f000045690000ee
:1033a4006e7400002e63000000570000465f0000aa
:1033b40053700000692e00006300000057460000af
:1033c4004d610000632e00006300000057460000ba
:1033d40050610000726100006d4d000073670000d1
:1033e4002e63000000570000464300006f6e00008b
:1033f4006e65000063740000696f00006e50000089
:10340400726f0000666900006c6500002e630000a6
:1034140000570000464300006f6e00006e65000018
:1034240063740000696f00006e4100006c67000067
:103434006f72000069740000686d00002e63000064
:1034440000570000464300006f6e00006e650000e8
:1034540063740000696f00006e4d0000616e00002f
:1034640061670000657200002e63000000570000d1
:103474004644000072690000766500007243000053
:103484006f6d00002e6300000057000046490000e5
:103494006e690000742e00006300000057460000af
:1034a40044720000697600006572000052610000f9
:1034b400772e000063000000574600004d670000af
:1034c4006d7400004d730000672e0000630000005f
:1034d400574600004d6700006d7400004d730000f6
:1034e4006754000065730000742e00006300000040
:1034f4005746000054780000506f000077650000c4
:10350400722e00006300000057460000506f000058
:10351400776500007253000061760000652e00009c
:10352400630000005746000045760000656e000009
:1035340074480000616e0000646c00006572000055
:103544002e63000000570000465300006361000032
:103554006e2e000063000000574600004461000026
:1035640074610000547800005278000000490000a3
:10357400706500007266000041700000702e00004b
:103584006300000057460000486f00007374000099
:103594004272000069640000676500002e63000049
:1035a40000570000465f000069700000657200006b
:1035b400664300006c690000656e0000742e000014
:1035c40063000000574600005f690000706500005a
:1035d4007266000053650000727600006572000098
:1035e4002e63000000570000465f00006970000071
:1035f40065720000664300006f6d00006d6f00008f
:103604006e2e00006300000045760000656e000029
:10361400743a0000204300006f6e00006e650000e5
:1036240063740000696f00006e20000054650000a0
:103634006d7000006f72000061720000696c000020
:10364400792000004c6f000073740000202d0000ee
:103654002d20000065760000656e000074490000ae
:103664006e6600006f2000003d2000000025000071
:10367400642c0000200000000d0a0000004500003a
:10368400766500006e7400003a200000436f00006d
:103694006e6e000065630000746900006f6e0000c8
:1036a40020460000616900006c6500006420000091
:1036b400202d00002d20000065760000656e0000be
:1036c400744900006e6600006f2000003d20000079
:1036d40000450000766500006e7400003a2000008a
:1036e400436f00006e6e00006563000074690000a3
:1036f4006f6e000020500000657200006d610000d4
:103704006e6500006e7400006c790000204c0000af
:103714006f730000742000002d2000006576000007
:10372400656e0000744900006e6600006f200000a2
:103734003d200000000d00000a570000694600000b
:1037440069200000636f00006e6e00006563000076
:10375400746900006f6e000020730000657400003f
:10376400746900006e670000733a00000d0a0000df
:103774000053000053490000443a00002020000098
:103784002020000020200000202000002020000035
:1037940020200000002800006e6f00006e6500000d
:1037a400290000004e650000747700006f7200006d
:1037b4006b20000054790000706500003a2000007e
:1037c400202000002000000041640000486f000039
:1037d400630d00000a0000005769000046690000fc
:1037e400204400006972000065630000740d00004d
:1037f4000a000000536f00006674000020410000be
:10380400636300006573000073200000506f0000c4
:10381400696e0000740d00000a000000496e00008b
:10382400667200006173000074720000756300002a
:103834007475000072650000202800007573000094
:10384400696e0000672000005750000053200000fc
:103854005075000073680000204200007574000079
:10386400746f00006e2900000d0a0000004900007a
:103874006e660000726100007374000072750000cf
:103884006374000075720000652000002875000054
:10389400736900006e670000205700005053000059
:1038a40020500000696e0000290d00000a0000008d
:1038b400496e0000667200006173000074720000bb
:1038c4007563000074750000726500000d0a000045
:1038d40000430000686100006e6e0000656c00002b
:1038e400204c000069730000743a0000202000009e
:1038f4002020000000250000640000002c200000af
:10390400004100006c6c000020630000686100004e
:103914006e6e0000656c000073200000696e00008c
:10392400206400006f6d0000616900006e0d0000ee
:103934000a0000004d410000433a0000202000002e
:103944002020000020200000202000002020000073
:103954002020000020000000253000003258000024
:1039640020000000536500006375000072690000c8
:10397400747900003a20000020200000202000007c
:1039840020200000200000004f700000656e000041
:103994000d0a00000057000050410000207700008d
:1039a40069740000682000006b650000790d000058
:1039b4000a00000057500000413200002077000048
:1039c40069740000682000006b650000790d000038
:1039d4000a000000575000004120000077690000f1
:1039e4007468000020700000617300007320000000
:1039f4007068000072610000736500000d0a000029
:103a04000057000050410000322000007769000098
:103a140074680000207000006173000073200000cf
:103a24007068000072610000736500000d0a0000f8
:103a34000057000050410000207700006974000026
:103a4400682000006b650000792c000020610000f4
:103a5400757400006f2d0000736500006c65000034
:103a6400637400000d0a000000570000504100007c
:103a74002077000069740000682000007061000075
:103a8400737300002070000068720000617300000e
:103a9400652c000020610000757400006f2d00008b
:103aa400736500006c650000637400000d0a00007b
:103ab4000057000050530000207000007573000090
:103ac4006820000062750000747400006f6e0000ce
:103ad400206d000065740000686f0000640d000034
:103ae4000a00000057500000532000005049000015
:103af4004e2000006d650000746800006f640000d3
:103b04000d0a000000570000504100003220000060
:103b1400456e000074650000727000007269000058
:103b2400736500000d0a00000057000045500000b6
:103b3400343000002c2000000057000045500000e5
:103b440031300000342c00002000000057450000f4
:103b5400502000004b65000079200000496e0000f1
:103b640064650000783a0000202000002000000076
:103b7400256400000d0a00000057000046200000e4
:103b8400415300005345000052540000494f0000c7
:103b94004e20000061740000200000002573000026
:103ba40020200000004c0000696e00006520000029
:103bb4004e7500006d62000065720000203d00003b
:103bc400200000000a540000656e0000746f0000bd
:103bd400206c000061200000636f00006e6e000026
:103be40065730000736900006f6e000065200000bb
:103bf400696e0000697a0000696100006c6500006c
:103c04002e2e00002e000000313000003131000063
:103c14003100000031390000322e0000313600003e
:103c2400382e0000333300002e3100003132000002
:103c3400000a0000436f00006e6e00006573000010
:103c4400736900006f6e000065200000616c000065
:103c54002073000065720000766500007220000089
:103c6400666100006c6c000069740000610a000069
:103c74002052000069700000726f0000766f00002f
:103c84002e2e00002e0a0000000a0000436f0000e0
:103c94006e6e000065730000736900006f6e0000b3
:103ca40065200000616c0000207300006572000054
:103cb40076650000722000007269000075730000d0
:103cc4006369000074610000000a0000496e00008e
:103cd400766900006f200000646500006c2000001d
:103ce4006d65000073730000616700006769000080
:103cf4006f200000616c00002073000065720000fa
:103d040076650000720000000a5000006163000044
:103d140068650000747400006f200000696e000084
:103d240076690000617400006f0000000a4300001f
:103d3400686900007573000075720000612000005e
:103d4400536f0000636b000065740000000a0000fc
:103d540045720000726f000072650000206e000062
:103d6400656c00006c610000207200006963000053
:103d7400657a0000696f00006e6500002064000031
:103d8400692000004d6100007820000065200000db
:103d94004d6900006e0000000a540000696d0000c7
:103da400656f0000757400002065000072720000e9
:103db4006f720000004900006e760000696f000019
:103dc4002061000067670000696f0000726e0000e8
:103dd400616d0000656e0000746f000020610000da
:103de4006c200000736500007276000065720000ac
:103df400200a000000250000642000002564000063
:103e04002025000064200000256400002025000017
:103e140064200000256400002025000064200000c8
:103e24002564000020250000640d00000a00000045
:103e34004368000069750000736f0000536f000051
:103e4400636b00006574000055700000646100003d
:103e5400746500000a0000005465000072720000de
:103e6400206d0000696e00006f72000065000000a4
:103e74005465000072720000206d0000616700004c
:103e8400676900006f72000065000000466c000066
:103e9400797000006f720000742000005769000000
:103ea4002d6600006920000047200000636f0000b9
:103eb4006e6e00006563000074650000642e0000ef
:103ec4002e2e0000686500006c6c00006f2000005e
:103ed400776f0000726c0000642100000d0a00007e
:103ee4000025000064200000256400002025000057
:103ef40064200000256400002025000064200000e8
:103f04002564000020250000642000000d0a000044
:103f140000740000656d00007065000072610000af
:103f240074750000726100003a20000025640000ee
:103f3400200a0000007500006d690000646900003b
:103f440074c30000a02000006172000069610000d9
:103f54003a20000025640000200a000000750000db
:103f64006d6900006469000074c30000a0200000b3
:103f74007465000072720000656e00006f3a000004
:103f840020250000642000000a0000006c75000079
:103f9400636500003a20000025640000200a000048
:103fa400200a0000200000002c2800002900000046
:103fb4002e000000256c0000690000007061000004
:103fc400737600000d0a0000000d00000a000000d6
:103fd40053650000727600006572000020490000fd
:103fe400503a0000000d00000a5300006572000002
:103ff4007665000072200000706f0000727400008b
:104004003a000000536500007276000065720000fb
:10401400207300006561000072630000686900009d
:104024006e6700002e2e00002e0000004654000093
:10403400504300006f6e00006e6500006374000062
:104044003a2000005345000052560000455200003b
:10405400204600004f5500004e4400000d0a0000a9
:1040640000320000323000000046000054500000ce
:10407400436f00006e6e000065630000743a000038
:104084002053000045520000564500005220000015
:10409400414e0000535700004552000045440000c3
:1040a4000d0a000000550000534500005220000096
:1040b4000033000033310000005500005345000078
:1040c400522000004f4b00000d0a00000050000079
:1040d4004153000053200000003200003330000040
:1040e4000035000033300000005000004153000050
:1040f400535700004f520000442000004f4b000073
:104104000d0a000000530000495a00004520000039
:10411400003500003530000000320000313300006b
:104124000046000054500000466900006c65000021
:10413400536900007a6500003a00000053540000ff
:104144004f52000020000000415000005045000084
:104154002000000031350000300000003232000041
:1041640036000000524500005452000020000000b8
:104174005374000072650000616d00004f70000010
:10418400656e00003a2000005245000054520000c1
:104194000d0a000000530000747200006561000005
:1041a4006d4f0000706500006e3a0000205300005f
:1041b400544f0000520d00000a0000005374000028
:1041c40072650000616d00004f700000656e0000b4
:1041d4003a20000041500000504500000d0a000044
:1041e4000031000032350000004600005450000049
:1041f4005374000072650000616d00005772000086
:1042040069740000653a000020740000696d0000c4
:10421400656f0000757400002062000079200000c2
:10422400736500007276000065720000206400006f
:1042340069730000636f00006e6e00006563000028
:10424400746900006f6e00000d0a00000046000053
:10425400545000005374000072650000616d00004a
:104264005772000069740000653a00002074000071
:10427400696d0000656f0000757400000d0a000090
:1042840000460000545000005374000072650000a2
:10429400616d000052650000616400003a20000076
:1042a400454f000046200000726500006163000075
:1042b40068650000640d00000a0000004654000018
:1042c4005053000074720000656100006d520000dc
:1042d40065610000643a000020740000696d00000c
:1042e400656f0000757400002062000079200000f2
:1042f400736500007276000065720000206400009f
:1043040069730000636f00006e6e00006563000057
:10431400746900006f6e00000d0a00000046000082
:10432400545000005374000072650000616d000079
:1043340052650000616400003a20000074690000c6
:104344006d6500006f750000740d00000a00000028
:10435400070c000011160000070c000011160000e5
:10436400070c000011160000070c000011160000d5
:10437400050900000e140000050900000e140000d9
:10438400050900000e140000050900000e140000c9
:10439400040b000010170000040b000010170000ad
:1043a400040b000010170000040b0000101700009d
:1043b400060a00000f150000060a00000f15000091
:1043c400060a00000f150000060a00000f15000081
:1043d40078a400006ad7000056b70000c7e80000c0
:1043e400db70000020240000eece0000bdc1000000
:1043f400af0f00007cf500002ac6000087470000cc
:104404001346000030a800000195000046fd00009e
:10441400d898000080690000aff70000448b0000ca
:10442400b15b0000ffff0000bed700005c89000004
:1044340022110000906b00009371000098fd0000b1
:104444008e43000079a6000021080000b449000052
:10445400622500001ef6000040b3000040c00000ca
:10446400515a00005e260000aac70000b6e9000009
:104474005d1000002fd60000531400004402000019
:1044840081e60000a1d80000c8fb0000d3e70000cb
:10449400e6cd0000e1210000d607000037c300008c
:1044a400870d0000d5f40000ed1400005a4500000b
:1044b40005e90000e3a90000f8a30000effc0000f8
:1044c400d90200006f6700008a4c00002a8d0000aa
:1044d40042390000faff000081f6000071870000f5
:1044e400226100009d6d00000c380000e5fd000015
:1044f40044ea0000bea40000a9cf0000de4b000087
:10450400604b0000bbf6000070bc0000bfbe0000a2
:10451400c67e00009b280000fa270000a1ea0000e4
:1045240085300000efd40000051d00008804000061
:1045340039d00000d4d90000e5990000dbe6000082
:10454400f87c0000a21f000065560000acc4000007
:104554004422000029f4000097ff00002a430000d1
:10456400a723000094ab000039a0000093fc0000d6
:10457400c35900005b65000092cc00000c8f000062
:104584007df40000efff0000d15d00008485000091
:104594004f7e0000a86f0000e0e600002cfe000043
:1045a4001443000001a30000a1110000084e000004
:1045b400827e000053f7000035f200003abd00008f
:1045c400bbd20000d72a000091d3000086eb000084
:1045d40021210000212000004465000066610000e4
:1045e400756c000074200000696e000074650000a2
:1045f4007272000075700000742000006861000091
:104604006e6400006c65000072200000212100002f
:10461400210d00000a0000002121000021200000db
:104624004f730000636900006c6c0000617400004b
:104634006f72000020460000616900006c200000d9
:10464400696e0000746500007272000075700000ed
:1046540074200000686100006e6400006c65000056
:104664007220000021210000210d00000a0000003a
:104674002121000021200000416400006472000038
:10468400657300007320000045720000726f000023
:1046940072200000696e00007465000072720000f0
:1046a4007570000074200000686100006e640000f2
:1046b4006c6500007220000021210000210d000023
:1046c4000a00000021210000212000005374000092
:1046d400616300006b20000045720000726f0000ef
:1046e40072200000696e00007465000072720000a0
:1046f4007570000074200000686100006e640000a2
:104704006c6500007220000021210000210d0000d2
:104714000a00000021210000212000004d6100005a
:104724007468000020450000727200006f7200007f
:10473400206900006e74000065720000727500004c
:104744007074000020680000616e0000646c00005a
:104754006572000020210000212100000d0a0000e4
:1047640000000000484500004c4f0000204d0000b0
:1047740043480000504200004f41000052440000f2
:104784000d0a000000450000484c00004f200000c6
:104794004d43000048500000424f000041520000c9
:1047a400440d00000a000000415500005448000078
:1047b400204c00004f470000494e00000d0a000045
:1047c400000d00000a0000004d410000494c0000ab
:1047d40020460000524f00004d3a00003c0000000b
:1047e4003e0d00000a000000524300005054000037
:1047f400205400004f3a00003c00000044410000f7
:10480400544100000d0a000000460000726f0000d1
:104814006d3a0000200000000d0a0000546f0000f3
:104824003a200000000d00000a430000433a000053
:10483400200000000d0a000053750000626a0000a9
:1048440065630000743a0000200000000d0a0000b7
:104854002e0d00000a0000000d0a00002e000000ca
:1048640051550000495400000d0a000000000000ea
:1048740044690000736300006f6e00006e65000001
:104884006374000020660000616900006c6500002c
:10489400642e00002044000069730000636f000070
:1048a4006e6e0000656300007420000069730000f0
:1048b400206100006c6c00006f77000065640000ec
:1048c400206f00006e6c0000792000007768000003
:1048d400656e0000206d00006f640000756c0000c0
:1048e4006520000069730000206900006e2000004c
:1048f400636f00006e6e0000656300007465000065
:10490400642000007374000061740000650d0000f1
:104914000a0000004e6f000020730000746f000056
:10492400726500006420000073630000616e000083
:104934002072000065730000756c00007473000041
:104944000d0a00000000000045760000656e0000be
:10495400743a0000204300006f6e00006e65000092
:1049640063740000696f00006e200000537500003e
:10497400636300006573000073660000756c0000db
:104984000d0a000000450000766500006e7400000a
:104994003a200000436f00006e6e00006563000063
:1049a400746900006f6e000020520000656500000d
:1049b40073740000616200006c6900007368000099
:1049c400656400000d0a00000045000076650000e3
:1049d4006e7400003a20000053630000616e000012
:1049e4002052000065730000756c000074730000b1
:1049f4002052000065610000647900002c20000052
:104a040000250000640000002072000065730000af
:104a1400756c0000747300000d0a000000000000b3
:104a2400466c0000797000006f7200007420000072
:104a34007374000061720000746900006e67000006
:104a44002e2e00002e0000005443000050000000f1
:104a5400556e000065780000706500006374000006
:104a640065640000206500006e640000206f000093
:104a740066200000707200006f6700007261000021
:104a84006d2e00002e2e00000d0a000000490000cb
:104a94006e69000074690000616c0000697a0000ae
:104aa400696e00006720000055440000502e00008d
:104ab4002e2e00000d0a0000004600004c59000094
:104ac400000d00000a4e0000657700002049000038
:104ad400502000004164000064720000657300000f
:104ae400733a0000200000000d0a000000000000de
:104af4002e00000000040000a300000000000000dd
:104b0400010200000304000005060000070800007d
:104b1400090a00000b5000004943000055530000ef
:104b240000430000566900007274000075610000c3
:104b34006c650000004300006c61000076690000b1
:104b4400723000003130000031000000000000002d
:104b54002c010000c800000001000000c800000093
:104b64002c010000030000003c0000006400000071
:104b74000400000064000000c800000008000000f9
:104b8400e8030000e803000008000000e803000058
:104b9400e803000009000000e8030000e803000047
:104ba40011110000222200003333000044440000ad
:104bb400555500006666000077770000888800007d
:104bc40099990000aaaa0000bbbb0000cccc00004d
:104bd400dddd0000eeee0000cecd0000acab000049
:104be4004f6e0000004f0000666600000069000080
:104bf4006e660000726100000061000064680000dd
:104c04006f630000005400004350000000ff0000e8
:104c1400ffff0000ffff0000ff00000053740000ce
:104c240061720000746900006e6700002057000084
:104c34006946000069200000436f00006e6e0000aa
:104c440065630000746900006f6e00000d0a0000c7
:104c54000d0a0000000000000d0a00004448000096
:104c6400435000002f5000006f7700006572000071
:104c740020650000766500006e740000206f00005f
:104c84006363000075720000726500006400000038
:104c9400000a000000110000101e00002d02000098
:104ca400040300000c0b0000181700001608000095
:104cb40006090000070000000e1d00002564000026
:104cc4002e250000642e0000256400002e2500001f
:104cd4006425000063000000706f00006f6c00002a
:104ce4002e6e0000747000002e6f000072670000ca
:104cf400000000000400000014030000180300007a
:104d04001c0300000000000000000000200300005d
:104d14000a00000024030000280300002c03000004
:104d24000000000030030000340300001200000003
:104d34003c0300004003000044030000480300005b
:104d44004c0300005003000014000000380300006e
:104d5400000000000000000000000000000000004f
:104d640031320000372e0000302e0000302e0000bb
:104d740031000000494400004c45000000000000e0
:104d840000040000a3000000000000000101000076
:084d9400010000000600000010
:020000040000fa
:104d9c000200fa00004f780020a422001040780096
:104dac009e4f50001d00320020a4220010407800bd
:104dbc00e24f40000b00320020a42200104078008b
:104dcc000080fb007e00b90080007800c04022000b
:104ddc0000804000215422000e0009003118780098
:104dec00e001b10020a422001e487800e0cfb300ff
:104dfc009e4f1000090032001e80fb007e00b9009f
:104e0c0080007800c0402200008040002154220025
:104e1c000e000900b0187800e001b1000080fa0023
:104e2c00000006000000fa0030a422009040780038
:104e3c0020a422001040780080cf500029003200be
:104e4c0030a4220010407800e24f400018003200dd
:104e5c00e04d22000001780030a4220010407800c0
:104e6c000080fb007e00b900fc004000c040220026
:104e7c00008040009042780030a42200104078005e
:104e8c000080fb007e00b90080007800c04022004a
:104e9c00008040009000780080fd2f0000804000d2
:104eac008402200013c0b300854078006d11070008
:104ebc0020a422009040780030a422000148780001
:104ecc00e055220090417800112a810080fd2f00ce
:104edc0000814000e04d22008402200011c0b3008c
:104eec00601107000080fa00000006000c00fa00b8
:104efc00a0752100000f7800205281000000e00016
:104f0c0008003a00129702000000000080007800b0
:104f1c00f07f200080806000004020000080400076
:104f2c002052890060502200c20320008000eb0058
:104f3c00f2060200000000000040eb00204f980039
:104f4c000040eb00304f98004e0037003e48900078
:104f5c008fff07003e4890000080fb006600b90000
:104f6c0080007800805a2a00008040009040900019
:104f7c00214798003e4890000080fb006600b90075
:104f8c008080e800805a2a00008040009000780061
:104f9c00410798003e4890000080fb006600b90075
:104fac00e4004000805a2a00008040009000780005
:104fbc00310798002e4090000080fb000000e000bc
:104fcc00010032002e0037001e00780020079800e8
:104fdc00ce0090003e009000008040001e0040007b
:104fec00a1022000010f4000e05c23009e0f100086
:104ffc00fdff3e00e0552200ae40900001487800d5
:10500c002e0090008002b000102a8900112a810025
:10501c004e009000008040000000e800202a89002b
:10502c00212a81003e00900000804000302a890037
:10503c00d0002000c02a8900d02a81000030a100b5
:10504c00d02a890077ff07003e4890000080fb00c3
:10505c006600b90080007800805a2a000080400069
:10506c009040780050502200014878001a0b07003d
:10507c003e4890000040e800304f98000100370097
:10508c00ffff37003e489000e64f5000afff360060
:10509c000080fa00000006001200fa0010079800c9
:1050ac00210798006247980043079800244f980006
:1050bc000040eb00004f7800990037001e4078004c
:1050cc0033ff0700c02a8100ed0f500093003a0017
:1050dc0054ff070050502200904078002e4890005a
:1050ec0080cf50008d003a008021200010288900cc
:1050fc006e4090000004e0000a003a004e00900060
:10510c0070278900d02a81000030a000d02a8900a5
:10511c0040002000c02a89004e019000e22a89003c
:10512c007b00370021528100f03f2000808f50001f
:10513c00040036002152810080382100808f5000fd
:10514c0002003600004020002052890020528100cd
:10515c00702789000000e800205289004e00900062
:10516c00602789003a3d020001000000802a890076
:10517c00912a8900d02a81000040a000d02a890001
:10518c006e4090000080fb00000f98000e0990000c
:10519c00e30f5100220032000e089000e30f500084
:1051ac0004003c000e099000e10f5100580035003e
:1051bc00040037000e089000e40f5000300032005d
:1051cc00530037001e009000ae009000a02789000d
:1051dc00b12789000041eb00624f98006e409000af
:1051ec00e24f500002003a0010c0b300604f98002c
:1051fc00012881006e4990000280fb006100600074
:10520c004201dd00b0ff2f008080600082807000c2
:10521c00012889000000eb00c02a89003c003700ff
:10522c000e80e800900090000e80e80010007800de
:10523c00808040004e0090008080400070278100ec
:10524c0000806800e02a89001e009000ae009000eb
:10525c00a0278900b12789008040eb004050220034
:10526c0001487800d003200001002000f0268900be
:10527c000127890020002000c02a89002400370063
:10528c001e009000ae00900080007800214090003d
:10529c000081fb00314090000080fb004800dd00e5
:1052ac0002007000000178001e009000ae0090001b
:1052bc009080fb00104090000080fb004800dd0057
:1052cc0001007000800041004e0090008080400082
:1052dc007027810000806800e02a89001e00900081
:1052ec00ae00900080007800404f220009000900b9
:1052fc0031587800a000b100a100b100500020008e
:10530c00c02a890011c0b30020c0b3000e070700eb
:10531c001e80fb0060079800060037001e4fe80057
:10532c0062c0b3009e4f110064ff3600e00f2000f6
:10533c00600798006e0090000080fa0000000600e4
:10534c000400fa00004f780060c0b3009e4f1000bc
:10535c000300360010002000100798000f003700e3
:10536c001e4078008afe0700d02a8100010021002f
:10537c00010060000000e00006003200d02a81002d
:10538c0000c0a100d02a890010002000100798004e
:10539c00020037000000eb00100798001e00900080
:1053ac000080fa00000006000400fa00004f7800ac
:1053bc0060c0b3009e4f1000030036008000eb006d
:1053cc0011079800090037001e40780070fe070096
:1053dc00c02a81008000eb0011079800e70f5000f5
:1053ec0002003a0010002000100798001e009000e8
:1053fc000080fa00000006000400fa00004f78005c
:10540c0060c0b3009e4f10004b003e001e40780061
:10541c005ffe0700602a8100702a8900c02a810083
:10542c00100798001e009000e50f50001f0032007e
:10543c001e009000e50f50000a003e001e00900078
:10544c00e10f5000150032001e009000e10f5000db
:10545c00160039001e009000e30f500032003e0091
:10546c00120037001e009000eb0f50001e0032009f
:10547c001e009000eb0f500004003e001e00900038
:10548c00e70f500028003e000a0037001e00900075
:10549c00ee0f5000210032002300370046ab020013
:1054ac00000000000c0a0700230037000a0a07005e
:1054bc002100370011c0b30010c1b300a2060700d1
:1054cc00802781000000e00004003200412a8100a6
:1054dc0050278100808f5000f6ff3a00800020009a
:1054ec00c02a89001400370011c0b30010c1b300ea
:1054fc0095060700802781000000e00004003200c0
:10550c00412a810050278100808f5000f6ff3a001d
:10551c00c0002000c02a890007003700d0002000fe
:10552c00c02a8900040037008040eb0040c1b30062
:10553c0085060700e80907000080fa000000060055
:10554c000200fa00004f780060c0b3009e4f1000bc
:10555c0007003e001e4078000dfe0700d02a810097
:10556c000030a100d02a89001e407800a2ff07005d
:10557c000080fa00000006000400fa00004f7800da
:10558c0060c0b3009e4f1000030036008000eb009b
:10559c00110798000b0037001e407800fcfd070037
:1055ac0020fe070000402200414f220009000900a4
:1055bc00315878006027810050208900004022007b
:1055cc00100798001e0090000080fa0000000600f2
:1055dc000200fa00004f780060c0b3009e4f10002c
:1055ec000a003e001e407800e9fd07000dfe070092
:1055fc00412a810050278100808f50000300320027
:10560c0011c0b30000c1b3004f0607000080fa00c0
:10561c00000006000600fa00204798002e4090007b
:10562c00e64f5000030036000000eb002007980006
:10563c00200037002e409000d5fd0700c02a8100c5
:10564c00004f780070c0b3009e4f1000060032006f
:10565c00b0c0b3009e4f1000030032000000eb00fe
:10566c002007980013003700412a8100502a81003e
:10567c00808f50000a003900212a8100102a8100f5
:10568c0000815000512a8100402a81000080500086
:10569c00000041000000e9002007980005003700d9
:1056ac00502a8100412a8100010050000000e900cd
:1056bc00200798002e0090000080fa0000000600e1
:1056cc000600fa0020479800314798002e409000c1
:1056dc00e64f5000030036000000eb002007980056
:1056ec00440037002e409000a9fd07002e4090008a
:1056fc00c8ff0700000f78001e00e00003003a000e
:10570c000000eb00200798003a0037001000200042
:10571c009e0f100002003a002e409000acff0700d4
:10572c00d02a810001102000010060000000e00080
:10573c000b003a00212a8100102a810000805000c1
:10574c000000d1009e0f5000050039002e40900043
:10575c009fff0700d02a81000080a000d02a89007a
:10576c006300470000017800e0552200904078006b
:10577c00402a81001400200013c0b300390f070029
:10578c00402a81000000e800402a8900412a81005b
:10579c00202a8100808f500002003900102a8100dd
:1057ac00402a8900100020009e0f100003003a00d0
:1057bc002e40900086ff07000c003700d02a810095
:1057cc0001022000010060000000e00007003a0028
:1057dc00d02a81000050a000d02a8900463d02004a
:1057ec000100000069004000a02a89001000200080
:1057fc00200798002e0090000080fa0000000600a0
:10580c000e00fa0060479800410798005207980074
:10581c000000eb00000f78006e409000e64f500047
:10582c00030036000000eb006007980062003700b0
:10583c006e40900056fd07006e40900075ff07000b
:10584c00100798001e0090000000e00005003a00d0
:10585c006e4090005eff07000000eb0060079800b0
:10586c00550037001e009000200798009e00900005
:10587c005e009000808f5000020036005e009000a9
:10588c0020079800d02a8100011020000100600040
:10589c000000e0000c003a00212a8100102a81004f
:1058ac00008050008000d1001e009000808f5000be
:1058bc00050039006e40900045ff0700d02a81009a
:1058cc000080a000d02a8900412a81002e0090007f
:1058dc0080804000202a8100808f50001400390005
:1058ec00212a8100402a8100008f50004e00900038
:1058fc0000017800e055220090407800402a810099
:10590c001e02780013c0b300d60e07009e0078006c
:10591c004e00900001004000400798002e009000bf
:10592c001e00500020079800102a8100402a890090
:10593c004e00900000017800e05522009040780065
:10594c00402a81002e02900013c0b300c50e070040
:10595c00412a81002e00900000804000402a8900de
:10596c009e0090005e009000808f500003003e006f
:10597c006e40900016ff07000c003700d02a810003
:10598c0001022000010060000000e00007003a0066
:10599c00d02a81000050a000d02a8900463d020088
:1059ac000100000069004000a02a89002e00900030
:1059bc001e004000600798006e0090000080fa0006
:1059cc00000006000400fa00004f78001107980050
:1059dc001e009000fa030200000000000001780095
:1059ec009e0090001e40780085ff07008000780024
:1059fc001e009000008040000080fa0000000600ad
:105a0c000800fa00404798004e409000e64f5000c6
:105a1c00030036000000eb00300798000c00370044
:105a2c004e409000dafc0700212a8100102a8100e8
:105a3c0000805000000fe9004e409000f5fe07007a
:105a4c00100798001e0090001e00100030079800f0
:105a5c003e0090000080fa00000006000200fa00f0
:105a6c00004f78001e4078000b0007000000e0009b
:105a7c00070032001e407800c5fc0700602a810038
:105a8c00702a890011c0b30000c1b3002e050700b5
