:020000040000fa
:080000000002040000000000f2
:020000040000fa
:100400004f652300007f24000001880000000000e9
:100410000c0007008091240011002000110007004b
:10042000000020000000e000020032000000020096
:100430000000000018400200010000000040da0047
:100440000000fe004440a900406d21000000e000d3
:100450000300320000002000a00188004440a800f2
:100460000000060091018800800078000000eb0089
:1004700015003700e280400032a0b4009101ba00bc
:10048000e280400032a0b4009102ba00e280400055
:1004900032a0b4000002eb00472bde00f507b200eb
:1004a000602ce10004003a000059eb008301e900f0
:1004b000fdff3e00040037006128e100010032002a
:1004c0000082eb00040007001101ba000200e00006
:1004d000e8ff3a00000006003159ba008301e90044
:1004e0000c0032002159ba008301e90008003200f3
:1004f0000400e00003003a00e280400032a0b400b3
:10050000f5ff370011d9ba008301e900faff3a007c
:100510008100e800e180400032a0b4000000060045
:1005200020990400010000006c400400010000005c
:10053000f002040001000000560104000100000068
:100540007601040001000000040304000100000023
:100550001003040001000000e40104000100000099
:10056000b802040001000000ea25040001000000b8
:10057000462204000100000056240400010000008f
:10058000ae20040001000000341f04000100000040
:10059000902204000100000070230400010000000c
:1005a000fe1f0400010000003825040001000000c7
:1005b000a226040001000000047a040001000000eb
:1005c000b27a0400010000009e7b040001000000dc
:1005d000047c0400010000001e7c040001000000f7
:1005e000367c040001000000f67c040001000000dd
:1005f0005ca70400010000007c270400010000004b
:10060000c42c0400010000001429040001000000b3
:10061000aa2d0400010000005ad0040000000000d0
:1006200038e1040000000000acaf0400010000004d
:10063000c2af040001000000e8af040001000000a8
:100640000ab0040001000000a893040001000000ab
:1006500042940400010000008094040001000000a6
:10066000c094040001000000649504000100000033
:1006700084650400010000002e6e040001000000eb
:10068000606e040001000000866e0400010000009e
:10069000aa6e040001000000e66e040001000000e4
:1006a00074710400010000004e0504000000000009
:1006b0003200f80091018800023b88000008bb006e
:1006c0000500fc0051052000313b8800a10a2000f4
:1006d000313b880061e7a800000000000000000036
:1006e0003200f900000006000400a10001003700fc
:1006f0000400a0003200f8009101880011002400dd
:10070000013b8800f10f20003208bb000400a70065
:10071000b20078000198bb008301e900faff3a00bb
:10072000680151000400a7006801510068005000f2
:100730001208bb00e2ff3700f30f20003200f80080
:100740009101880031002400013b88000208bb00b1
:100750000388bb00daff37003200f800003b880056
:10076000d7ff3700889fbe000004be00708a81005a
:100770000000e00001003200000001000800e0007d
:1007800001003a00688a81000800be0031020700bb
:10079000000444001804e00004003a00001523009f
:1007a000608a89000004eb00070037000800be00e3
:1007b0003a020700000044001004e000010032008b
:1007c0000058eb00608a8900080078004f04be00e2
:1007d00000000600800178000001780031407800b8
:1007e000005978000004e000fcff3a0003007800a4
:1007f0000000060080007800010037000000e800db
:100800001004e000fdff3a00010050000000060067
:100810008001780000017800010037000201e80043
:100820001204e000fdff3a00020037000201e80078
:100830008100e80011407800004978000004e000e1
:10084000faff3a000300780000000600ec8747003a
:10085000889fbe008a9fbe008c9fbe008e1f7800be
:10086000f0b79f0081bf9f008204780000047800e9
:10087000010037000804e800184778000e00fb006c
:10088000180207000000e000faff3a00d0c2b300ef
:10089000804f57000500320000c0e900804f57002c
:1008a0000200320000477800010037000804e80029
:1008b0000900e00045003500e18f5400430032009c
:1008c00040022000808f540040003c000900e000fe
:1008d0000e003400f08f54001a003a0000c3b30039
:1008e000984f100016003a009840900080c7b3005f
:1008f00080cf50000300320080c5b30080cf50008d
:100900000f003a000884e8000e003700a90020001c
:1009100000c3b300984f10000a003a0098409000be
:1009200080c7b30080cf500004003200890020004f
:1009300080c5b30080cf500002003a000884e80070
:10094000090120000805780000c3b300010037004a
:100950000a05e8009a4f1000fdff32008a05780072
:100960006066b8000e00370010e42200004252001a
:10097000c4ef9f006149b9000c00be005306070098
:100980004fea97000401fb00cf91de008b05e800e1
:10099000ccb79f00ddb79f0000064100818649006b
:1009a0001b00fb00d70107008000780009017800d8
:1009b00010e42200da010700000278000000e000e5
:1009c000e9ff3a008b0f540006003a000fb8970079
:1009d0000000e00029003200ffb097000108780015
:1009e000260037008a805500c0e1220060c07c00ec
:1009f0000000fb0000805000160033004240a900b8
:100a00000f003c004fe997000200fb00cf80de00a2
:100a10000000560081805e00800f5600818f5e00ce
:100a2000070039006149b900530607004fb197002c
:100a3000dfb19700820f5000838f5800050032000d
:100a400020022000408889000086eb008086eb00b1
:100a500005003700d0c2b300804f570002003a00b3
:100a600060061600e0861e008fb997000300e000c4
:100a7000030032008b097800010037006066b8007f
:100a80000c00be004f0778004f06be004f05be00a9
:100a90004f04be00cf00b10000000600881f7800a0
:100aa000020478009a000700080040004f04780014
:100ab000000006000000fa00881f7800000478009b
:100ac0003fb99700ea81570080007800e054200089
:100ad000a3010700800078000000e000020035005c
:100ae0000040eb0000f47800010078004f0478002b
:100af0000080fa0000000600040037000204e00055
:100b00000a0032000000e8008100e800104178008f
:100b1000914f5100f9ff32000081eb001040780046
:100b2000914f500004003900020037000001eb0033
:100b300001003700120020000200780000000600cb
:100b4000881f7800008581000000e000010032006d
:100b500000000100d08481000000e00001003200ac
:100b600000000100f06181000000e000010032009f
:100b700000000100c06181000000e00001003200bf
:100b800000000100200a23001004e00026003a00c3
:100b9000e0848100f18481000004eb00d260260033
:100ba00093012000c9050700f2352f00e3c623009a
:100bb00000004100818049000804e800e80f54006b
:100bc000f6ff3a00e0848900f184890008c422001d
:100bd000d260260093012000e0848100f18481002e
:100be000ba050700f2352f00e3c6230000004100dc
:100bf00081804900e0848900f1848900009cbe0066
:100c000000cc2200800f5400f1ff3a00e065810023
:100c1000f1658100d0618900e161890011c0b300f4
:100c2000200a230001487800d260260093012000aa
:100c3000e0848100f1848100a4050700f2352f00d3
:100c4000e3c623000000410081804900e084890060
:100c5000f1848900a2c32200120178007f016100a3
:100c60004211dd0003c42200030141001202be0054
:100c7000d4618900e56189000089be00d0618100ee
:100c8000e16181004008de0000f0a1004f0478001f
:100c900000000600881f78000004780000858100ad
:100ca0000000e0000100320000000100200a2300e3
:100cb0000048eb00d08481000000e0000100320019
:100cc000000001006140b800e0848900f1848900df
:100cd0004f047800000006008001eb000800370098
:100ce000e342780063c278008301e80084cf5200b9
:100cf000030032000080eb00040039001000050002
:100d0000828f5100f6ff3a000000eb000000060061
:100d10008001eb000200370061f079008301e800f8
:100d2000828f5100fcff3a000000060004003700eb
:100d30000204e00001003a00000005000000e800a5
:100d400010417800814f5100f9ff3a000000060081
:100d5000889fbe0081047800114478000804e000f8
:100d600009003a000c003700800178000901780082
:100d7000d24078000104e00007003200d3cf100019
:100d8000fbff32000000e8008800fb00e7ff0700df
:100d90000000e000f4ff3a004f04be00000006002f
:100da000800178008002eb00010037008459780050
:100db00005035100828f52000900320065c278009d
:100dc0008502e8000404e000f8ff3a0083007800a0
:100dd000068141008058eb00828f5000fdff3a00f1
:100de000000006008001eb000200370081717800ee
:100df0008301e800828f5100fcff3a0000000600ea
:100e00000000e000310032008080e90091027800ab
:100e1000e38f52002d0036000508a3002b003a0096
:100e2000628781000200e00002003200828f5000e1
:100e3000040031000208780061878900160037003d
:100e400003017800920190000300e00002003200ec
:100e5000818f5100faff390012027800040041002e
:100e6000808f500019003900810f500003003a00b4
:100e70000509420082007800070037000300e00007
:100e80000300320005804000808f51000f003900c0
:100e90009300980011019800110190000200e000f9
:100ea0000a00320011804000820f500007003a0013
:100eb000a00e23000008eb00110090001101780043
:100ec000900841001000900090009800000006007b
:100ed000889fbe00e30440000900a100808f5400f9
:100ee0004a003600e38f540001003e004900200014
:100ef000528781000200e000020032008200780088
:100f00000c003700c10e230003003700908f5400ff
:100f1000230036008080e800110078000000e00027
:100f2000faff3a000f003700908f54001c00360083
:100f30008080e800110078000000e000faff3a002d
:100f400012017800c10e230003003700908f540077
:100f5000130036008080e80011007800820f5000f6
:100f6000faff3a0048878100890f540001003100e0
:100f70000904780008007800320107000000e00052
:100f800004003a00890f5400200032000804d10008
:100f9000f5ff37000818780099ff0700d4ff3700e5
:100fa000110178009201780064805100890f50008f
:100fb000030031001200900080087800070037001d
:100fc0000900410080087800920190001300980009
:100fd0001100780012881400090978009100780047
:100fe0000100e00005003200110090000000e00068
:100ff000020032000180e800010037000000eb0031
:10100000508789000280e800010037000000eb00f3
:101010004f04be0000000600881f78008a9fbe00b3
:101020000185b9000a007800a9ff070000047800d4
:101030000000e000030032000a0178008000eb00ad
:1010400068ff0700080078004f05be004f047800d5
:1010500000000600000278000b0037000101780054
:10106000924178000304e00002003a0004005000be
:101070000000060083cf5200020032000201e800a7
:10108000f7ff37000000e800904278000504e00018
:10109000f2ff3a0004005000000006000002780051
:1010a0000700370083cf52000a0032000201e80037
:1010b000924178000304e000faff3a000000e800e3
:1010c000904278000504e00004003200010178003d
:1010d000f7ff370004005000000006000400500035
:1010e000000006006900e100040035006d00e10029
:1010f000030034000002b1000100320000000500ce
:1011000010000500800078001104b10003003500d4
:101110009101b10001003c000050a0000000060059
:101120008001eb00040037008301e80090cf10003d
:10113000040032000000e800828f5100faff3a00fc
:101140000000eb0000000600308881000000e00095
:1011500001003200000001008010230000000600a2
:101160006200fa00889fbe008a9fbe000004be0095
:10117000020578008300780060f92f000f0040001e
:10118000b700070088979f0099979f000000eb0029
:10119000a09f9f009a4578000b80fb000000ea00aa
:1011a000cf04de0050c2b30080cf550002003200f1
:1011b00009047800010037000904e9000800e00094
:1011c0000b0034001f909700080178008a00780017
:1011d0008f9197000300010090979f000000e000ae
:1011e000930032002f98970000004400a09f9f00ba
:1011f0000905450050c2b30080cf550004003200fd
:101200000b04e000e3ff3a002f98970089003700b5
:101210000000eb00809f9f00f0979f00e0979f00e9
:10122000d0979f00c0979f00b0979f00c09f9f00de
:1012300009003700a0042300008050000000400097
:10124000e1032300e10078004f989700010070004f
:10125000c09f9f000a05e8001a4478008800fb0040
:10126000a0042300b1fe0700800078000000e00029
:10127000f0ff3a00a0c2b300804f54000e003a00c5
:10128000bf8897000180e900b08f9f0010007800b0
:10129000b09f9f000000e00005003d000000ea0054
:1012a000b09f9f004f9897000020a000c09f9f0014
:1012b0000a05e80010003700b19f9f0003fd2f00d2
:1012c000f4ff2700080037003f989700840f500074
:1012d000040032006a00b900000041000300400031
:1012e000b09f9f000a05e8001a01fb0003004100bf
:1012f000e90f5000f4ff3600e0c2b3009a4f10002f
:10130000040032000080eb00909f9f008a04780068
:101310001c0037008a04e800a0c2b300994f1000f7
:1013200007003a00bf8897000180e900b08f9f0056
:1013300010007800909f9f008a84e8001100370019
:101340000000eb00909f9f0003fd2f00f4ff27009b
:10135000080037001f989700840f500004003200e7
:101360006a00b9000000410003004000909f9f0008
:101370008904e8001901fb0003004100e90f500057
:10138000f4ff3600194478008800fb00c00b2300ee
:1013900066fe07000000e00002003a00004478000a
:1013a000010037008904e800a87f9f0080c6b300d1
:1013b000804f540004003a00994f14000a003a008c
:1013c0006640500006003700c0c6b300804f54008e
:1013d00005003a00994f140003003a0065404000b0
:1013e000a07f9f008904e8000905e800cbfb2f00df
:1013f0008f8545001901fb0060f92f000f004000a8
:101400000084e8008b0178008000780008007800f4
:10141000180007000000e00005003a008b0078008b
:1014200008007800560107000000e00059ff3d0069
:101430000080eb004f05be004f04be000080fa00a4
:10144000000006000000e00003003400a5030700d0
:10145000e10f400001003a000000eb000000060030
:101460000200fa00f1bf9f00010878000080fa0036
:1014700000000600889fbe008a1f780000047800e4
:10148000010278008244780003057800e0c6b300ca
:10149000804f5100d200320015003c006b405000dc
:1014a000804f5100240032000a003c007040500080
:1014b000804f51000f01320065404000804f5100c5
:1014c0007400320050c2b300804f510020013a0036
:1014d0001c01370040c6b300804f51001b00320092
:1014e00065404000804f510019013a001700370055
:1014f00030c7b300804f5100fe00320007003c00af
:1015000064405000804f5100620032000040e8000b
:10151000804f51000e013a00e700370050c7b3007a
:10152000804f51005b00320063404000804f51000b
:1015300007013a00570037009180e900010a78005e
:10154000780090009171780007013700a860900042
:10155000c0c6b30080cf50000a003a009400780063
:1015600064805000000a78001000be004f89de0041
:10157000cf91de000002be000203780082037800f3
:101580001300370010c7b30080cf500003003200b3
:10159000a0c6b30080cf500006003a009400780047
:1015a00068805000000a78003002be002003be00b0
:1015b000070037001480e900000a78001000780066
:1015c00000027800cfa2de000503780086037800d1
:1015d000049cbe000694be00a860900080c6b300c4
:1015e00080cf50000e00320020c6b30080cf5000e4
:1015f00005003a000400fb00cf80de000101780006
:10160000820178000a00370040c7b30080cf500045
:10161000030032006640400080cf500006003a00d0
:1016200004007800cf80de0001017800820178009c
:10163000009cbe000294be003800be002801be001f
:10164000e00f5000e08f5800e00f5900e08f590084
:1016500003003d0078009000d1c2b3000a003700bb
:10166000081090000018a3000300320078009000da
:10167000b1c2b300040037000008a30053003200d9
:101680007800900001c2b300017578000000e80006
:101690004d003700a8609000c0c6b30080cf500056
:1016a00006003a009400780064805000000a780038
:1016b0001002be006033b8001300370010c7b3003b
:1016c00080cf500003003200a0c6b30080cf50008e
:1016d00006003a009400780068805000000a780004
:1016e0003002be002003be00070037001480e9006e
:1016f000000a780010007800000278000500200041
:101700000600200007002000049cbe000694be00d6
:10171000a860900080c6b30080cf50000e00320059
:1017200020c6b30080cf500005003a000480fb00c3
:101730000100200002002000030020000a00370002
:1017400040c7b30080cf5000030032006640400025
:1017500080cf500006003a0004007800010020000d
:101760000200200003002000009cbe000294be0086
:10177000081090000038a300140032003800be00aa
:101780002801be00e00f5000e08f5800e00f590024
:10179000e08f59000d00320080c7b30080cf5400a5
:1017a0000300320080c5b30080cf540007003a0028
:1017b0007800900001c3b300017578008000e80054
:1017c00009f578000080e800700498007800900027
:1017d000000045006004980089407800420037000e
:1017e000a8609000c0c6b30080cf50002500320032
:1017f0000a003c006440500080cf500028003200b6
:1018000000c0e80080cf5000140032006840500053
:1018100080cf500022003a000a00370040c7b300d2
:1018200080cf50001e0032006640400080cf500044
:101830001b0032006940500080cf500018003a0071
:10184000060037001480e900000a780010007800d4
:10185000485c900008487800450037001480e90093
:10186000000a78001002780068089000cf80de003f
:101870000101780082017800009abe000292be0049
:101880003b0037001480e900000a7800100178005e
:1018900068089000cf80de000089be003400370069
:1018a0001480e900000a780010007800680c9000ad
:1018b000080878002e0037001180e90080087800c1
:1018c00010007800cf80de000101780082017800ee
:1018d000009cbe000294be0078009000000045000d
:1018e0006004980081c7b30008007800ee0007008c
:1018f0001f0037001480e900000a7800100078000b
:1019000060049800580990000200e00002003d00c9
:10191000b8fb0700090037008000eb0000fe07005d
:10192000800078000000e0000300320068009000b2
:10193000008050000100370058089000100c9800fb
:101940000b00370078009000027578000600370021
:1019500078009000800045000904e00001003a0092
:1019600059c2b300894878000000e800700498006c
:101970000000eb004f0578004f04be000000060099
:101980000400fa00889fbe008a9fbe008c1f78006a
:10199000000478000106780070089000f8009000bc
:1019a0000100500088089000010050009808900045
:1019b00001005000a808900001005000b8089000f5
:1019c00001005000c808900081055000000222006c
:1019d00090bf9f0000032300a0bf9f00081090004d
:1019e0000028a30018003a000b00e00016003400a5
:1019f0008b04780009057800e28f5400020036005d
:101a00002a002000020037000900e0000b0034002b
:101a100058009000c80190000a017800ee8057003d
:101a200003000100500498000000e000960032001e
:101a30006808900000004500600c98008a845400fb
:101a40004240a900ebff3c00780190000200e0005a
:101a50000b00340058009000c80190008c00780002
:101a600003000100500498000000e00086003200ee
:101a700068089000f800900001004000600c980099
:101a8000880c90000900e00015003400090578007a
:101a9000e28f5400020036002a00200002003700c6
:101aa0000900e0000b00340058009000c8019000cd
:101ab0000a017800ec8057000300010050049800f0
:101ac0000000e0007000320068089000000045004f
:101ad000600c98008a8454004240a900ebff3c004f
:101ae000180990000200e0000b003400e8009000ac
:101af00058009000c80190000300010050049800b5
:101b00000000e00060003200680890009808900033
:101b100001004000600c9800a80c90000900e00053
:101b20001500340009057800e28f540002003600e9
:101b30002a002000020037000900e0000b003400fa
:101b400058009000c80190000a017800ec8057000e
:101b500003000100500498000000e0004a00320039
:101b60006808900000004500600c98008a845400ca
:101b70004240a900ebff3c00380990000200e00061
:101b80000d003400e80090001808900080804000ac
:101b900058009000c8019000030001005004980014
:101ba0000000e0003800320068089000b80890009b
:101bb00001004000600c9800c80c90000900e00093
:101bc0001500340009057800e28f54000200360049
:101bd0002a002000020037000900e0000b0034005a
:101be00058009000c80190000a017800ec8057006e
:101bf00003000100500498000000e00022003200c1
:101c00006808900000004500600c98008a84540029
:101c10004240a900ebff3c00081090000028a30000
:101c20001b0032000b00e000190034008b04780028
:101c300009057800e28f5400020036002a002000d7
:101c4000020037000900e0000b003400580090004b
:101c5000c80190000a017800ee80570003000100df
:101c6000500498000000e00007003200680890006f
:101c700000004500600c98008a8454004240a9008e
:101c800003003400eaff37000080eb00010037005a
:101c90000000eb004f0678004f05be004f04be0069
:101ca0000080fa00000006002f03b000889fbe00ed
:101cb0008a9fbe008c9fbe008e1f780000077800b0
:101cc000b0f92200c0b79f0080c5b30080cf50009c
:101cd00008003200a2f82200c2b79f0077404000ff
:101ce00080cf500003003a0083002000b3b79f006c
:101cf0000a00370080c7b30080cf500005003200d3
:101d0000a4002000b4b79f0080c5b30080cf50006e
:101d100002003a0005012000b5b79f003e04be0056
:101d20002e05be0040c6b30080cf50000300320035
:101d30006540400080cf50000b003a00e00f540097
:101d4000e08f5c00e00f5d00e08f5d0006003d006d
:101d50006000b8006011b800080450008984580081
:101d60000a0559008b855900bfb39700e88f5300cf
:101d700003003200f08f530045003a0002003700a4
:101d8000360020000100370046002000e00f54001c
:101d9000e08f5c00e00f5d00e08f5d0005003a0021
:101da0005e08900081012000a1b79f000000e000c4
:101db000080032003fb197000200e900080060000f
:101dc000cfb197006340780090df9f00740120003e
:101dd000a4b79f00860278008502e9000500330061
:101de0008b05d1000a85d3008984d3000884d300f1
:101df000f9ff3700089fbe000a97be00afb39700f7
:101e00000700e90021fc2f008f8040000082400085
:101e10003fb197008202e90012003700afb397008c
:101e20008703e900a7b79f0000806200cfb097004a
:101e3000615278003e00be002e01be00860378008d
:101e40008703e900050033008381d1000281d300bc
:101e50008180d3000080d300f9ff3700009fbe00cf
:101e60000297be003e00be002e01be00e00f5000f3
:101e7000e08f5800e00f5900e08f5900d600340081
:101e8000afb397000700e000e4ff3c00d20037004a
:101e9000ae60900080c6b30080cf50000b003200cf
:101ea00006003c000104e0000800320066405000db
:101eb00080cf500073003a0004003700c0c6b30062
:101ec00080cf50006f003a003100370008017800e1
:101ed0000800e00005003a005e0890008101200043
:101ee000a1b79f000000e00009003200bfb19700d9
:101ef000110009000381d8008000fd004fb2970057
:101f00006440780090df9f0075012000a5b79f0016
:101f1000bfb39700110009000781d8008001780045
:101f2000afb097000100e90022fc2f000f01410033
:101f3000000241000c003700bfb2970011000900f9
:101f40008501d80000017800afb397008703e9004e
:101f5000a7b79f000590b90000805100cfb097004f
:101f600061527800820178000300e0000300340031
:101f70002fb197000200e000efff3c000300780063
:101f8000cf80de0001017800820178003a0037003e
:101f90000806be00e00f5400e08f5c0005003a0028
:101fa0005e08900083012000a3b79f000000e000be
:101fb000090032003fb297006121b9000c00be0059
:101fc00054030700cfb297006540780090df9f0070
:101fd00077012000a7b79f003fb297006121b900a9
:101fe0000c00be00e40007000006be00afb2970080
:101ff0000500e90027fc2f008f8343008083430006
:1020000097b79f00110037003fb197006114b900e6
:102010000801be000c00be00410307000005be0021
:10202000afb197008301e900a3b79f000801be008c
:10203000a6000700000056001fb29700cfb297001d
:102040006552780094b79f000a06be00e00f560064
:10205000e08f5e0003003400afb397000700e0009c
:10206000e9ff3c004feade00cfa2de000c00be001c
:102070000401780084017800009fbe000297be0032
:1020800055003700e00f5400e08f5c00e00f5d006a
:10209000e08f5d0005003a005e089000810120009d
:1020a000a1b79f000000e0000d0032003fb1970093
:1020b00002027800cfa2de000503780086037800d4
:1020c0000800be000a01be005a0207004fb2970086
:1020d0006440780090df9f0075012000a5b79f0045
:1020e0003fb1970002027800cfa2de00050378001e
:1020f000860378000800be000a01be004602070001
:10210000009fbe000297be00afb197000300e90038
:1021100024fc2f000f02420000064200200037007e
:10212000bfb2970005047800cfc4de00090578002f
:102130008a0578000802be000a03be005fa8970067
:10214000efa897007fa997008fb197003d02070085
:10215000d0b79f00e1b79f00f2b79f0083bf9f00f9
:10216000afb397008703e900a7b79f000802be003e
:102170000a03be00b90207005faa970000005200e0
:10218000cfb29700655678005fb09700efb0970028
:102190007fb197008fb99700009fbe000297be00e5
:1021a0003e00be002e01be00d0af9f00e1af9f00f9
:1021b000f2af9f0083b79f00e00f5000e08f580000
:1021c000e00f5900e08f590003003400afb09700d2
:1021d0000100e000d2ff3c003fb19700e80f510042
:1021e00013003a000e1090000038a30010003200d7
:1021f000afb19700f78f510006003e0024fc2f007e
:102200000f0242008300420000c3b300914f100050
:1022100007003200afb297008502e900a5b79f0022
:1022200000c3b30027fc2f008f83430080f37a00a4
:10223000afb1970078811100120f98006e009000e6
:1022400024fc2f000f02420083004200b0fa070076
:102250001e0990005e089000800f510006003d00ae
:1022600002005000000f98000e1090000040a100e6
:10227000001798000f0037000000e0000d003d003f
:102280000e10900074006000f00f500009003a003a
:102290007e089000fe009000010050008e08900023
:1022a00001005000020050004240a900010034002b
:1022b000000f98004f0778004f06be004f05be0084
:1022c0004f04be002f03b10000000600020ab9004f
:1022d000001bb9000200b8008100420081004300e9
:1022e00000000600889fbe0080047800908a81006c
:1022f0000000e00003003a00100007000000e000ca
:102300000a003500908a81000900e00002003a00ce
:10231000000478000600370000047800090040003f
:10232000060007000000e00001003d000084eb0013
:10233000080078004f04be0000000600800078000e
:102340000000e00004003a0040152300908a890054
:1023500001017800060037000081eb004065230092
:10236000808f500002003e00918a89000001eb003e
:1023700002007800000006006022b800060220007b
:102380000000d0008180d2000482d2008582d20079
:102390000000a0000202520083825a0003003100b4
:1023a0000202420083824a000000a1000603e90005
:1023b000f3ff3a0000000600889fbe008a9fbe001f
:1023c0008c1f7800650207006c02330003866c00e6
:1023d0006450e1002e0032006420e100330032003e
:1023e0006150e1002f0032006120e1003100320035
:1023f00085855500eb07b000090020000804200087
:10240000050037000804440089844c000a003100ac
:102410000603430087834b000001530081815b006a
:10242000f8ff33000203be000800a00008044400c7
:1024300089844c00f6ff3900c639dd008301730042
:1024400001003200130020008904d1000884d30069
:102450000998a300050032000800a7000300a000af
:102460008904d1000884d3008b05e8008904d100d9
:102470000884d3000001eb000281d2004f02070064
:1024800001f0a1000cf0a70001f0a0004402370009
:102490006420e100460232000801be000200be00d6
:1024a000f7ff37006120e100410232006000b80010
:1024b000f3ff37000000200001f82700f0ff37008d
:1024c000f4ff2f00630237000001be007c0207000a
:1024d0000470a70003f0a10003f8a30013003a0062
:1024e0006509b10010003200090035006928e100db
:1024f0000200350001002800000005000000400037
:10250000818048008502e900fcff3a0000000600d7
:10251000f88f4200050035008100d1000080d30013
:102520008502e800fcff3a00000006008000eb0096
:1025300000000500889fbe008a9fbe00010578004c
:102540000100e0000400350008003c000000e0004d
:10255000200032000500370060001000e080180005
:1025600002003b0001f02c001a0037000004be00fe
:102570006011b8006b0920000982cf000200390009
:102580000882cf000441b000694252000e003200c0
:1025900008003b0082817100610164008904d10060
:1025a0000884d3008b05e8000442e800f9ff3a00f4
:1025b000050037000804440089844c008b05e900bd
:1025c0000442e900fbff3a00fc0107000af0a70003
:1025d00001f0a0004f05be004f04be000000060041
:1025e00003f0a200889fbe008a9fbe008c1f780067
:1025f000da010700e10133006450e1004f003200ce
:102600006420e1005200320003826c0007003b00ae
:102610000905d0000306d000820f54000c065d00af
:1026200002003900020032008901780003067800b8
:102630008582550004003d000003fd008103fd007c
:102640008502ea008b854200840f720002003b0085
:1026500060001000e08018006011b8000005eb0079
:102660007a28e1000a00390006007800c75ddd0025
:10267000f707b200878075002d0037008281710056
:102680000a017800610560008180d1000080d300dc
:102690008502e900f9ff3b000604400087844800fa
:1026a00002003b0060041400e0841c000988a300c1
:1026b000070032008a81710082817100610164002b
:1026c0008904d1000884d3008b05e8001700370087
:1026d0000978a30013003a000b00e0001300340057
:1026e0008b05e9000804440089844c000a44740006
:1026f0000978a3000d003a000b00e0000700340049
:102700008b05e9000804440089844c0001003a006c
:102710000b0020000978a300f7ff32000001eb0056
:1027200002003700828171000a017800a3010700ce
:102730000cf0a70001f0a000990137006420e1002f
:1027400002003a00838f6c00990133000801be003b
:102750000200be0092013700889fbe008a9fbe0023
:102760008c1f78007d0107008401330003866c0014
:102770006450e100240032006420e10027003200b0
:102780006150e100220032006120e10021003200ae
:102790008b854200eb07b1000134b800003ab80065
:1027a0000804420089844a00013ab8000030b800a9
:1027b0008880400009014a00040033000000400006
:1027c00081804800020149008b05e900c909dd004c
:1027d000830170000100320013002000c814de00e5
:1027e0004814dd004709de001200b200c808de0010
:1027f000088470007101070001f0a1000cf0a7002f
:1028000001f0a000660137006120e100680132009c
:102810000801be000200be00f7ff37006150e10072
:10282000fcff3a00620137001400200089013700e4
:10283000881f7800000478005001be004000be00f0
:102840000400400085804800060149008781490056
:10285000009cbe000294be000400e1000588e10077
:102860000690e1000798e100020031006800440092
:102870001008e8004f04780000000600f4874700c5
:10288000889fbe008a9fbe008c9fbe008e1f78006e
:102890000205be000004be00d4b79f00e5b79f004c
:1028a000f6b79f0087bf9f000000eb00c0b79f00f6
:1028b000b0b79f00a0b79f0090b79f0080b79f0060
:1028c0000d042000bfb097004fb0970000014000fa
:1028d0000000e0000f003d004f08de000000710026
:1028e000c0b79f009e00070001003d0012002000bd
:1028f000a100070001003d0012002000a600070013
:10290000b1000700b60007000f004000c8ff070035
:10291000220037004f08de0000067100ccb79f0090
:102920008f00070001003d00120020009200070008
:1029300001003d001200200097000700a2000700e0
:102940000fb297009fb297002fb39700bfb39700c5
:10295000a90007000000520081805a0002015b00bc
:1029600083815b0080b79f0091b79f00a2b79f0053
:10297000b3b79f000007eb009f0007000020e100b5
:1029800001a8e10002b0e10003b8e100010031005c
:102990001e0020000e005600c0b79f004fb29700e7
:1029a0000400e000070035001000200001002000b6
:1029b0006011b80008047000898470000a05710075
:1029c0008b8571008d06e900beff3a000400e0002f
:1029d00003003d00820007000f00400094ff070045
:1029e0004fa897000000e00004003a000fb49700e1
:1029f0009fb497002fb59700bfb5970094000700cc
:102a00004f0778004f06be004f05be004f04be00c2
:102a10004f01b10000000600881f78001800200058
:102a2000881f780095ff07008f87e9004f04780022
:102a300000000600801feb0090ff07008f87e90071
:102a400000000600889fbe008a9fbe008c1f780091
:102a50006e00070007003d0073000700e00f5b00f9
:102a6000e08f5b0007003d00320007000006eb002e
:102a7000040037003400070002003d002a00070070
:102a80001c00200072000700e3ff07000203be00e5
:102a90000002be000c00e00001003200220007002e
:102aa0000400be000601be004f0678004f05be00c0
:102ab0004f04be0000000600889fbe008a9fbe0033
:102ac0008c1f78005100070005003d0056000700ec
:102ad000e00f5b00e08f5b0006003d000400370064
:102ae0001900070003003d006000b8006011b80045
:102af0001000070056000700ceff07000203be00cb
:102b00000002be000c00e0000100320006000700d9
:102b10000400be000601be004f0678004f05be004f
:102b20004f04be00000006006000b8006011b8004d
:102b30000000370004025000858258000603590047
:102b400087835900000006000006eb00e00f5200ea
:102b5000e08f5a00e00f5b00e08f5b000000060092
:102b60000180400090b79f000001eb008fb09700fc
:102b70000100e000000006000200700090b79f0016
:102b80000180400080b79f000001eb00ffa8970084
:102b90000100e000000006000200700080b79f0006
:102ba000018040006faa9700cf20de000100700076
:102bb000f0af9f0004024200250007004f18de001e
:102bc0000002720000000600e4af9f000804440009
:102bd00089844c000a054d008b854d0000000600dd
:102be0003fb29700cfb297005fb39700efb3970063
:102bf00000fe2f00000006003fb09700cfb0970006
:102c00005fb19700efb19700000006000205be001b
:102c10000004be00e00f5000e08f5800e00f5900a4
:102c2000e08f5900000006006000b8006011b80095
:102c300008045000898458000a0559008b85590002
:102c40001c002000e00f5200e08f5a000000060038
:102c50000800be000a01be0000000600889fbe00fa
:102c60008a9fbe008c1f78000205be000004be00d3
:102c70000006eb00e00f5000e08f5800e00f590015
:102c8000e08f590007003d006000b8006011b800f7
:102c900008045000898458000a0559008b855900a2
:102ca0001c002000e00f5200e08f5a00e00f5b0094
:102cb000e08f5b0002003d000f0007000c00a20047
:102cc0000800be000a01be00920007000203be0019
:102cd0000002be000c00e000010032000600070008
:102ce0000400be000601be004f0678004f05be007e
:102cf0004f04be00000006006000b8006011b8007c
:102d00000402500085825800060359008783590049
:102d10000000060098fd07000400be000000060049
:102d2000839f68000100e00002003d006000100089
:102d3000e08018000300e00002003d006001110087
:102d4000e08119008cfd07004f00e00002003b000d
:102d500060001000e0801800000006000004be00c3
:102d6000570007000003be000405be000200be00bd
:102d700053000700844f7500000006000200be00eb
:102d80006450e100050036006420e10002003600d6
:102d90000968a30001003a000800be000160a0001d
:102da0004f0678004f05be004f04be00000006002d
:102db000f0ff2f00f1ff2700f9ff3700810020000e
:102dc000618055000b003d000b00200061fe2f00cc
:102dd0000100e1001d003400828171006101640086
:102de0008904d1000884d3000000e800faff3a000b
:102df00071002000610064000300700002006000a8
:102e00000900320061044400e0844c000988a500f8
:102e1000050032008b05e8006808e10002003a0076
:102e20008904d1000884d300f20f20000258e10089
:102e300005003d00c75ddd00f907b200898075001f
:102e400008007800000006000bf827008b007800cf
:102e500000000500889fbe008a9fbe00841f780086
:102e6000beff07004f00780011003300f0ff2f0075
:102e7000838f6c0006003b00040565000a00a70074
:102e80000800370009f0a6001000200008003700f5
:102e9000820f5400838f5c00030039001000200073
:102ea00001003e000000200009f0a7000000ea0039
:102eb0004f05be004f04be000000e0000000060009
:102ec000c70ade00f107b200f50fb20008003200b9
:102ed000e1cf4200020032000170a0002400050092
:102ee000810f700001003200040805004400050055
:102ef000810f700002003a00140005008502e9000d
:102f00000000400081c04800fcff3b000170a000b1
:102f100024000500889fbe008a9fbe008c9fbe00d3
:102f20000404b8000506b8008904460060854e0018
:102f30000606b8000a054600e0854e000706b80000
:102f40008b054600040eb800890446000a854e0031
:102f5000e0854d00050eb8000a0546008b854e0041
:102f6000060eb8008b0546000416b8000a05460098
:102f70008b854e000516b8008b054600041eb80070
:102f80008b0546000800be000a01be004f06be00c9
:0c2f90004f05be004f04be00000006000c
:020000040000fa
:020000040005f5
:0457f800eefa0000c5
:020000040000fa
:020000040005f5
:0457fc007f3e0000ec
:020000040000fa
:10000800949c0100be9c0100e89c0100129d010027
:100018003c9d0100949c0100949c0100949c01006b
:10002800949c01000e580100949c010022a3010039
:10003800949c010048580100949c0100949c010084
:10004800949c0100949c0100949c0100629c010016
:10005800949c0100ba950000949c0100949c0100b6
:10006800949c0100949c0100949c0100949c0100c4
:10007800aeae0100949c0100949c0100949c010088
:10008800949c0100949c0100949c0100949c0100a4
:10009800dea10100669d0100829c0100949c010084
:1000a800949c0100949c0100949c0100949c010084
:1000b800949c0100625801008a580100a45801006c
:1000c800cc580100949c0100949c0100949c010070
:1000d800949c0100949c0100949c0100949c010054
:1000e800949c0100949c0100949c0100949c010044
:1000f800949c01008e9d0100b69d0100949c010016
:10010800949c0100949c0100949c0100949c010023
:10011800949c0100949c0100949c0100949c010013
:10012800949c0100949c0100949c0100949c010003
:10013800949c0100949c0100949c0100949c0100f3
:10014800949c0100949c0100949c0100949c0100e3
:10015800949c0100949c0100949c0100949c0100d3
:10016800949c0100949c0100889c0100949c0100cf
:10017800949c0100949c0100949c0100949c0100b3
:100188008e9c0100949c0100949c0100949c0100a9
:10019800949c0100949c0100949c0100949c010093
:1001a800949c0100949c0100949c0100949c010083
:1001b800949c0100949c0100949c0100949c010073
:1001c800949c0100949c0100949c0100949c010063
:1001d800949c0100949c0100949c0100949c010053
:1001e800949c0100949c0100949c0100949c010043
:0801f800949c0100949c01009d
:020000040000fa
:10020800949c0100be9c0100e89c0100129d010025
:100218003c9d0100949c0100949c0100949c010069
:10022800949c01000e580100949c010022a3010037
:10023800949c010048580100949c0100949c010082
:10024800949c0100949c0100949c0100629c010014
:10025800949c0100ba950000949c0100949c0100b4
:10026800949c0100949c0100949c0100949c0100c2
:10027800aeae0100949c0100949c0100949c010086
:10028800949c0100949c0100949c0100949c0100a2
:10029800dea10100669d0100829c0100949c010082
:1002a800949c0100949c0100949c0100949c010082
:1002b800949c0100625801008a580100a45801006a
:1002c800cc580100949c0100949c0100949c01006e
:1002d800949c0100949c0100949c0100949c010052
:1002e800949c0100949c0100949c0100949c010042
:1002f800949c01008e9d0100b69d0100949c010014
:10030800949c0100949c0100949c0100949c010021
:10031800949c0100949c0100949c0100949c010011
:10032800949c0100949c0100949c0100949c010001
:10033800949c0100949c0100949c0100949c0100f1
:10034800949c0100949c0100949c0100949c0100e1
:10035800949c0100949c0100949c0100949c0100d1
:10036800949c0100949c0100889c0100949c0100cd
:10037800949c0100949c0100949c0100949c0100b1
:100388008e9c0100949c0100949c0100949c0100a7
:10039800949c0100949c0100949c0100949c010091
:1003a800949c0100949c0100949c0100949c010081
:1003b800949c0100949c0100949c0100949c010071
:1003c800949c0100949c0100949c0100949c010061
:1003d800949c0100949c0100949c0100949c010051
:1003e800949c0100949c0100949c0100949c010041
:0803f800949c0100949c01009b
:020000040000fa
:102f9c004e5500004c4c000000570000465f0000ee
:102fac004a4f0000494e00005f46000041490000b6
:102fbc004c5500005245000000570000465f0000d1
:102fcc004155000054480000454e00005449000093
:102fdc0043410000544900004f4e00005f46000082
:102fec00414900004c5500005245000000570000bc
:102ffc00465f000041530000534f0000434900005e
:10300c0041540000494f00004e5f00004641000053
:10301c00494c000055520000450000005746000086
:10302c005f570000455000005f480000414e000013
:10303c0044530000484100004b4500005f4600002f
:10304c00414900004c55000052450000005700005b
:10305c00465f0000505300004b5f000043410000ee
:10306c004c430000554c000041540000494f0000f7
:10307c004e5f000046410000494c000055520000d4
:10308c0045000000574600005f500000534b000005
:10309c005f480000414e00004453000048410000ce
:1030ac004b4500005f460000414900004c550000b4
:1030bc005245000000570000465f000041440000ec
:1030cc00484f0000435f00004a4f0000494e00008b
:1030dc005f460000414900004c550000524500007d
:1030ec0000570000465f00005345000043550000a8
:1030fc0052490000545900005f4d00004953000034
:10310c004d41000054430000485f00004641000060
:10311c00494c000055520000450000005746000085
:10312c005f4e00004f5f00005355000049540000f3
:10313c00414200004c4500005f410000505f000020
:10314c00464f0000554e0000445f00004641000011
:10315c00494c000055520000450000005746000045
:10316c005f52000045540000525900005f460000b9
:10317c004f52000045560000455200005f4e0000c3
:10318c004f5400005f53000055500000504f00009a
:10319c0052540000454400005f46000041490000c5
:1031ac004c5500005245000000570000465f0000df
:1031bc004c4900004e4b00005f4c00004f53000088
:1031cc005400000000570000465f000052530000fe
:1031dc004e5f00004d49000058450000445f000060
:1031ec004d4f0000444500005f4e00004f5400005e
:1031fc005f53000055500000504f00005254000027
:10320c004544000000570000465f00005245000096
:10321c00435600005f440000454100005554000037
:10322c0048000000574600005f5200004543000074
:10323c00565f000044490000534100005353000006
:10324c004f43000000570000465f0000575000003d
:10325c00535f000046410000494c000055520000ed
:10326c0045000000574600005f500000325000003f
:10327c005f460000414900004c55000052450000db
:10328c0000570000465f00004c4900004e4b000008
:10329c005f4400004f5700004e00000041730000d7
:1032ac00736f00006369000061740000696f0000b7
:1032bc006e20000046610000696c00007572000011
:1032cc0065000000574600005f42000045410000c9
:1032dc00434f00004e5f0000544900004d45000074
:1032ec004f55000054000000574600005f4400009a
:1032fc004541000055540000485f00005245000055
:10330c0043450000495600004544000000570000aa
:10331c00465f000044490000534100005353000035
:10332c004f43000049410000544500005f5200002b
:10333c00454300004549000056450000440000008c
:10334c00574600005f5400004b490000505f0000de
:10335c004d490000435f000046410000494c00000d
:10336c0055520000450000004d610000696e0000e0
:10337c00446500006d6f00002e63000000570000d4
:10338c00465f0000436f00006e6600006967000036
:10339c002e63000000570000465f000045690000e6
:1033ac006e7400002e63000000570000465f0000a2
:1033bc0053700000692e00006300000057460000a7
:1033cc004d610000632e00006300000057460000b2
:1033dc0050610000726100006d4d000073670000c9
:1033ec002e63000000570000464300006f6e000083
:1033fc006e65000063740000696f00006e50000081
:10340c00726f0000666900006c6500002e6300009e
:10341c0000570000464300006f6e00006e65000010
:10342c0063740000696f00006e4100006c6700005f
:10343c006f72000069740000686d00002e6300005c
:10344c0000570000464300006f6e00006e650000e0
:10345c0063740000696f00006e4d0000616e000027
:10346c0061670000657200002e63000000570000c9
:10347c00464400007269000076650000724300004b
:10348c006f6d00002e6300000057000046490000dd
:10349c006e690000742e00006300000057460000a7
:1034ac0044720000697600006572000052610000f1
:1034bc00772e000063000000574600004d670000a7
:1034cc006d7400004d730000672e00006300000057
:1034dc00574600004d6700006d7400004d730000ee
:1034ec006754000065730000742e00006300000038
:1034fc005746000054780000506f000077650000bc
:10350c00722e00006300000057460000506f000050
:10351c00776500007253000061760000652e000094
:10352c00630000005746000045760000656e000001
:10353c0074480000616e0000646c0000657200004d
:10354c002e6300000057000046530000636100002a
:10355c006e2e00006300000057460000446100001e
:10356c00746100005478000052780000004900009b
:10357c00706500007266000041700000702e000043
:10358c006300000057460000486f00007374000091
:10359c004272000069640000676500002e63000041
:1035ac0000570000465f0000697000006572000063
:1035bc00664300006c690000656e0000742e00000c
:1035cc0063000000574600005f6900007065000052
:1035dc007266000053650000727600006572000090
:1035ec002e63000000570000465f00006970000069
:1035fc0065720000664300006f6d00006d6f000087
:10360c006e2e00006300000045760000656e000021
:10361c00743a0000204300006f6e00006e650000dd
:10362c0063740000696f00006e2000005465000098
:10363c006d7000006f72000061720000696c000018
:10364c00792000004c6f000073740000202d0000e6
:10365c002d20000065760000656e000074490000a6
:10366c006e6600006f2000003d2000000025000069
:10367c00642c0000200000000d0a00000045000032
:10368c00766500006e7400003a200000436f000065
:10369c006e6e000065630000746900006f6e0000c0
:1036ac0020460000616900006c6500006420000089
:1036bc00202d00002d20000065760000656e0000b6
:1036cc00744900006e6600006f2000003d20000071
:1036dc0000450000766500006e7400003a20000082
:1036ec00436f00006e6e000065630000746900009b
:1036fc006f6e000020500000657200006d610000cc
:10370c006e6500006e7400006c790000204c0000a7
:10371c006f730000742000002d20000065760000ff
:10372c00656e0000744900006e6600006f2000009a
:10373c003d200000000d00000a5700006946000003
:10374c0069200000636f00006e6e0000656300006e
:10375c00746900006f6e0000207300006574000037
:10376c00746900006e670000733a00000d0a0000d7
:10377c000053000053490000443a00002020000090
:10378c00202000002020000020200000202000002d
:10379c0020200000002800006e6f00006e65000005
:1037ac00290000004e650000747700006f72000065
:1037bc006b20000054790000706500003a20000076
:1037cc00202000002000000041640000486f000031
:1037dc00630d00000a0000005769000046690000f4
:1037ec00204400006972000065630000740d000045
:1037fc000a000000536f00006674000020410000b6
:10380c00636300006573000073200000506f0000bc
:10381c00696e0000740d00000a000000496e000083
:10382c006672000061730000747200007563000022
:10383c00747500007265000020280000757300008c
:10384c00696e0000672000005750000053200000f4
:10385c005075000073680000204200007574000071
:10386c00746f00006e2900000d0a00000049000072
:10387c006e660000726100007374000072750000c7
:10388c00637400007572000065200000287500004c
:10389c00736900006e670000205700005053000051
:1038ac0020500000696e0000290d00000a00000085
:1038bc00496e0000667200006173000074720000b3
:1038cc007563000074750000726500000d0a00003d
:1038dc0000430000686100006e6e0000656c000023
:1038ec00204c000069730000743a00002020000096
:1038fc002020000000250000640000002c200000a7
:10390c00004100006c6c0000206300006861000046
:10391c006e6e0000656c000073200000696e000084
:10392c00206400006f6d0000616900006e0d0000e6
:10393c000a0000004d410000433a00002020000026
:10394c00202000002020000020200000202000006b
:10395c00202000002000000025300000325800001c
:10396c0020000000536500006375000072690000c0
:10397c00747900003a200000202000002020000074
:10398c0020200000200000004f700000656e000039
:10399c000d0a000000570000504100002077000085
:1039ac0069740000682000006b650000790d000050
:1039bc000a00000057500000413200002077000040
:1039cc0069740000682000006b650000790d000030
:1039dc000a000000575000004120000077690000e9
:1039ec0074680000207000006173000073200000f8
:1039fc007068000072610000736500000d0a000021
:103a0c000057000050410000322000007769000090
:103a1c0074680000207000006173000073200000c7
:103a2c007068000072610000736500000d0a0000f0
:103a3c00005700005041000020770000697400001e
:103a4c00682000006b650000792c000020610000ec
:103a5c00757400006f2d0000736500006c6500002c
:103a6c00637400000d0a0000005700005041000074
:103a7c00207700006974000068200000706100006d
:103a8c007373000020700000687200006173000006
:103a9c00652c000020610000757400006f2d000083
:103aac00736500006c650000637400000d0a000073
:103abc000057000050530000207000007573000088
:103acc006820000062750000747400006f6e0000c6
:103adc00206d000065740000686f0000640d00002c
:103aec000a0000005750000053200000504900000d
:103afc004e2000006d650000746800006f640000cb
:103b0c000d0a000000570000504100003220000058
:103b1c00456e000074650000727000007269000050
:103b2c00736500000d0a00000057000045500000ae
:103b3c00343000002c2000000057000045500000dd
:103b4c0031300000342c00002000000057450000ec
:103b5c00502000004b65000079200000496e0000e9
:103b6c0064650000783a000020200000200000006e
:103b7c00256400000d0a00000057000046200000dc
:103b8c00415300005345000052540000494f0000bf
:103b9c004e2000006174000020000000257300001e
:103bac0020200000004c0000696e00006520000021
:103bbc004e7500006d62000065720000203d000033
:103bcc0020000000c7000000fc000000e90000001d
:103bdc00e2000000e4000000e0000000e50000004e
:103bec00e7000000ea000000eb000000e800000025
:103bfc00ef000000ee000000ec000000c40000002c
:103c0c00c5000000c9000000e6000000c60000006e
:103c1c00f4000000f6000000f2000000fb000000c1
:103c2c00f9000000ff000000d6000000dc000000de
:103c3c00a2000000a3000000a5000000a7200000c7
:103c4c0092010000e1000000ed000000f300000014
:103c5c00fa000000f1000000d1000000aa000000f2
:103c6c00ba000000bf00000010230000ac000000f0
:103c7c00bd000000bc000000a1000000ab00000073
:103c8c00bb00000091250000922500009325000048
:103c9c00022500002425000061250000622500009b
:103cac005625000055250000632500005125000015
:103cbc00572500005d2500005c2500005b250000f9
:103ccc001025000014250000342500002c250000d0
:103cdc001c250000002500003c2500005e2500008e
:103cec005f2500005a2500005425000069250000be
:103cfc006625000060250000502500006c250000a2
:103d0c00672500006825000064250000652500007b
:103d1c0059250000582500005225000053250000ad
:103d2c006b2500006a250000182500000c250000fa
:103d3c0088250000842500008c25000090250000bb
:103d4c0080250000b1030000df0000009303000099
:103d5c00c0030000a3030000c3030000b500000073
:103d6c00c4030000a603000098030000a903000090
:103d7c00b40300001e220000c6030000b5030000bf
:103d8c002922000061220000b10000006522000021
:103d9c00642200002023000021230000f700000013
:103dac0048220000b000000019220000b7000000fb
:103dbc001a2200007f200000b2000000a0250000a5
:103dcc00a000000041000000420000004300000081
:103ddc0044000000450000004600000047000000c1
:103dec0048000000490000004a0000004b000000a1
:103dfc004c0000004d0000004e0000004f00000081
:103e0c005000000051000000520000005300000060
:103e1c005400000055000000560000005700000040
:103e2c0058000000590000005a000000210000005a
:103e3c00e0ff0000e1ff0000e5ff0000e2ff0000f2
:103e4c00e3ff0000c0000000c1000000c200000041
:103e5c00c3000000c4000000c5000000c600000044
:103e6c00c7000000c8000000c9000000ca00000024
:103e7c00cb000000cc000000cd000000ce00000004
:103e8c00cf000000d0000000d1000000d2000000e4
:103e9c00d3000000d4000000d5000000d6000000c4
:103eac00d8000000d9000000da000000db000000a0
:103ebc00dc000000dd000000de00000078010000e6
:103ecc0000010000020100000401000006010000d6
:103edc00080100000a0100000c0100000e010000a6
:103eec001001000012010000140100001601000076
:103efc00180100001a0100001c0100001e01000046
:103f0c002001000022010000240100002601000015
:103f1c00280100002a0100002c0100002e010000e5
:103f2c0030010000320100003401000036010000b5
:103f3c00390100003b0100003d0100003f01000081
:103f4c004101000043010000450100004701000051
:103f5c004a0100004c0100004e010000500100001d
:103f6c0052010000540100005601000058010000ed
:103f7c005a0100005c0100005e01000060010000bd
:103f8c00620100006401000066010000680100008d
:103f9c006a0100006c0100006e010000700100005d
:103fac00720100007401000076010000790100002c
:103fbc007b0100007d0100009101000091030000d5
:103fcc00920300009303000094030000950300008b
:103fdc00960300009703000098030000990300006b
:103fec009a0300009b0300009c0300009d0300004b
:103ffc009e0300009f030000a0030000a10300002b
:10400c00a3030000a4030000a5030000a603000006
:10401c00a7030000a8030000a9030000aa030000e6
:10402c00100400001104000012040000130400002e
:10403c00140400001504000016040000170400000e
:10404c0018040000190400001a0400001b040000ee
:10405c001c0400001d0400001e0400001f040000ce
:10406c0020040000210400002204000023040000ae
:10407c00240400002504000026040000270400008e
:10408c0028040000290400002a0400002b0400006e
:10409c002c0400002d0400002e0400002f0400004e
:1040ac0001040000020400000304000004040000ea
:1040bc0005040000060400000704000008040000ca
:1040cc00090400000a0400000b0400000c040000aa
:1040dc000e0400000f0400006021000061210000ac
:1040ec0062210000632100006421000065210000b2
:1040fc006621000067210000682100006921000092
:10410c006a2100006b2100006c2100006d21000071
:10411c006e2100006f21000021ff000022ff000033
:10412c0023ff000024ff000025ff000026ff0000f5
:10413c0027ff000028ff000029ff00002aff0000d5
:10414c002bff00002cff00002dff00002eff0000b5
:10415c002fff000030ff000031ff000032ff000095
:10416c0033ff000034ff000035ff000036ff000075
:10417c0037ff000038ff000039ff00003aff000055
:10418c0000000000610000006200000063000000fd
:10419c00640000006500000066000000670000007d
:1041ac0068000000690000006a0000006b0000005d
:1041bc006c0000006d0000006e0000006f0000003d
:1041cc00700000007100000072000000730000001d
:1041dc0074000000750000007600000077000000fd
:1041ec0078000000790000007a000000a1000000b7
:1041fc00a2000000a3000000a5000000ac0000001d
:10420c00af000000e0000000e1000000e200000050
:10421c00e3000000e4000000e5000000e600000000
:10422c00e7000000e8000000e9000000ea000000e0
:10423c00eb000000ec000000ed000000ee000000c0
:10424c00ef000000f0000000f1000000f2000000a0
:10425c00f3000000f4000000f5000000f600000080
:10426c00f8000000f9000000fa000000fb0000005c
:10427c00fc000000fd000000fe000000ff0000003c
:10428c00010100000301000005010000070100000e
:10429c00090100000b0100000d0100000f010000de
:1042ac0011010000130100001501000017010000ae
:1042bc00190100001b0100001d0100001f0100007e
:1042cc00210100002301000025010000270100004e
:1042dc00290100002b0100002d0100002f0100001e
:1042ec0031010000330100003501000037010000ee
:1042fc003a0100003c0100003e01000040010000ba
:10430c004201000044010000460100004801000089
:10431c004b0100004d0100004f0100005101000055
:10432c005301000055010000570100005901000025
:10433c005b0100005d0100005f01000061010000f5
:10434c0063010000650100006701000069010000c5
:10435c006b0100006d0100006f0100007101000095
:10436c007301000075010000770100007a01000064
:10437c007c0100007e01000092010000b1030000ee
:10438c00b2030000b3030000b4030000b503000047
:10439c00b6030000b7030000b8030000b903000027
:1043ac00ba030000bb030000bc030000bd03000007
:1043bc00be030000bf030000c0030000c1030000e7
:1043cc00c3030000c4030000c5030000c6030000c3
:1043dc00c7030000c8030000c9030000ca030000a3
:1043ec0030040000310400003204000033040000eb
:1043fc0034040000350400003604000037040000cb
:10440c0038040000390400003a0400003b040000aa
:10441c003c0400003d0400003e0400003f0400008a
:10442c00400400004104000042040000430400006a
:10443c00440400004504000046040000470400004a
:10444c0048040000490400004a0400004b0400002a
:10445c004c0400004d0400004e0400004f0400000a
:10446c0051040000520400005304000054040000e6
:10447c0055040000560400005704000058040000c6
:10448c00590400005a0400005b0400005c040000a6
:10449c005e0400005f040000702100007121000028
:1044ac0072210000732100007421000075210000ae
:1044bc00762100007721000078210000792100008e
:1044cc007a2100007b2100007c2100007d2100006e
:1044dc007e2100007f21000041ff000042ff000010
:1044ec0043ff000044ff000045ff000046ff0000b2
:1044fc0047ff000048ff000049ff00004aff000092
:10450c004bff00004cff00004dff00004eff000071
:10451c004fff000050ff000051ff000052ff000051
:10452c0053ff000054ff000055ff000056ff000031
:10453c0057ff000058ff000059ff00005aff000011
:10454c000000000053440000556e00004d6f000049
:10455c00756e000074280000292e00002e2e00001d
:10456c000a00000053440000496e0000697400000a
:10457c00282900002e2e00002e000000496e00009d
:10458c0069740000696100006c6900007a650000c4
:10459c00640a000000530000442000004361000046
:1045ac0072640000204e00006f7400002050000068
:1045bc0072650000736500006e7400000a00000054
:1045cc00476500006e650000726900006320000002
:1045dc0065720000726f0000720a0000000a000091
:1045ec00546500006e7400006f2000006c610000c8
:1045fc00206300006f6e00006e6500007373000096
:10460c00696f00006e650000206900006e69000093
:10461c007a690000616c0000652e00002e2e0000ef
:10462c000031000030310000313100000031000059
:10463c00373200002e310000372e000031310000df
:10464c002e380000370000000a4300006f6e000097
:10465c006e65000073730000696f00006e650000ea
:10466c00206100006c200000736500007276000071
:10467c006572000020660000616c00006c6900002f
:10468c00746100000a200000526900007072000082
:10469c006f7600006f2e00002e2e00000a00000026
:1046ac000a4300006f6e00006e650000737300001b
:1046bc00696f00006e650000206100006c20000036
:1046cc0073650000727600006572000020720000b5
:1046dc0069750000736300006974000061000000dc
:1046ec000a4900006e760000696f0000206400002b
:1046fc00656c0000206d00006573000073610000a4
:10470c0067670000696f0000206100006c200000ea
:10471c00736500007276000065720000000a0000ec
:10472c00506100006368000065740000746f000045
:10473c00206900006e76000069610000746f000053
:10474c00000a0000436800006975000073750000e2
:10475c0072610000205300006f6300006b65000065
:10476c00740000000a450000727200006f720000b5
:10477c00652000006e6500006c6c0000612000007c
:10478c0072690000636500007a6900006f6e0000ba
:10479c006520000064690000204d00006178000075
:1047ac0020650000204d0000696e0000000a00002a
:1047bc00546900006d6500006f75000074200000e6
:1047cc0065720000726f000072000000496e0000fc
:1047dc00766900006f2000006167000067690000c7
:1047ec006f7200006e6100006d6500006e74000059
:1047fc006f200000616c00002073000065720000e7
:10480c0076650000722000000a000000256400009c
:10481c0020250000642000002564000020250000f5
:10482c0064200000256400002025000064200000a6
:10483c002564000020250000642000002564000091
:10484c000d0a000000430000686900007573000049
:10485c006f5300006f6300006b650000745500001f
:10486c007064000061740000650a0000000a00001a
:10487c00496e0000766900006f2000006572000030
:10488c00726f0000726500000a00000031370000f2
:10489c00322e0000313700002e380000302e000080
:1048ac0031390000370000000a0a00000a570000e6
:1048bc004946000049200000434f00004e4e0000c6
:1048cc004543000054450000440000000a0a000063
:1048dc000a57000049460000492000004e4f0000d6
:1048ec0054200000434f00004e4e00004543000092
:1048fc005445000044000000466c00007970000034
:10490c006f72000074200000576900002d660000d3
:10491c006920000047200000636f00006e6e0000ed
:10492c006563000074650000642e00002e2e0000ec
:10493c00686500006c6c00006f200000776f000051
:10494c00726c0000642100000d0a000000250000bc
:10495c006c7500000a0000006d610000785f0000bb
:10496c006d6900006e2e0000747800007400000069
:10497c00466900006c650000206d00006178000045
:10498c005f6d0000696e0000206500007869000012
:10499c0073740000732100000a00000046690000d7
:1049ac006c650000206d0000617800005f6d0000f8
:1049bc00696e0000206300007265000061740000e5
:1049cc0065640000210a000000460000696c0000cc
:1049dc00652000006d610000785f00006d690000cb
:1049ec006e2000006e6f00007420000063720000e7
:1049fc006561000074650000642100000a0000007d
:104a0c0045720000726f0000723a000025640000cd
:104a1c000a00000068690000737400006f720000e7
:104a2c00792e0000747800007400000046690000c4
:104a3c006c65000020690000737400006f72000048
:104a4c0069630000616c000020650000786900005b
:104a5c0073740000732100000a0000004669000016
:104a6c006c65000020690000737400006f72000018
:104a7c0069630000616c0000206300007265000037
:104a8c006174000065640000210a0000004600000b
:104a9c00696c00006520000069730000746f0000f1
:104aac0072690000636100006c2000006e6f0000f2
:104abc0074200000637200006561000074650000e2
:104acc00642100000a000000257300000a000000a9
:104adc00424100005454000045520000494100007e
:104aec0020250000640a0000414c0000494d0000e4
:104afc00454e0000544100005a4900004f4e000042
:104b0c0045200000256400000a20000070650000ac
:104b1c0072630000656e000074750000616c00002b
:104b2c006520000062610000747400006572000072
:104b3c006961000020250000640a00000053000099
:104b4c00656e000064570000617200006e69000021
:104b5c006e67000000250000640a00000d000000d4
:104b6c00256400002025000064200000256400005e
:104b7c002025000064200000256400002025000092
:104b8c006420000025640000202500006420000043
:104b9c000d0a000000740000656d000070650000d7
:104bac007261000074750000726100003a20000010
:104bbc0025640000200a0000756d00006964000087
:104bcc0069740000c3a0000020610000726900003d
:104bdc00613a000020250000642000000a750000e6
:104bec006d6900006469000074c30000a02000001f
:104bfc007465000072720000656e00006f3a000070
:104c0c0020250000642000000a6c00007563000081
:104c1c00653a000020250000642000000a200000f6
:104c2c000a000000536500006e640000207500004f
:104c3c007064000061740000650000002c28000006
:104c4c00290000002e000000256c00006900000007
:104c5c0070610000737600000d0a0000000d00006a
:104c6c000a000000536500007276000065720000b7
:104c7c0020490000503a0000000d00000a530000cb
:104c8c00657200007665000072200000706f0000f5
:104c9c00727400003a000000536500007276000048
:104cac0065720000207300006561000072630000f3
:104cbc00686900006e6700002e2e00002e000000b8
:104ccc0046540000504300006f6e00006e650000fb
:104cdc00637400003a200000534500005256000057
:104cec0045520000204600004f5500004e44000085
:104cfc000d0a0000003200003230000000460000b7
:104d0c0054500000436f00006e6e0000656300009d
:104d1c00743a000020530000455200005645000034
:104d2c0052200000414e0000535700004552000035
:104d3c00454400000d0a00000055000053450000da
:104d4c0052200000003300003331000000550000f9
:104d5c0053450000522000004f4b00000d0a00008c
:104d6c0000500000415300005320000000320000ae
:104d7c0033300000003500003330000000500000dc
:104d8c0041530000535700004f52000044200000d4
:104d9c004f4b00000d0a000000530000495a000060
:104dac0045200000003500003530000000320000c6
:104dbc0031330000004600005450000046690000ea
:104dcc006c650000536900007a6500003a00000031
:104ddc00535400004f5200002000000041500000ce
:104dec00504500002000000031350000300000006c
:104dfc0032320000360000005245000054520000d0
:104e0c00200000005374000072650000616d00000a
:104e1c004f700000656e00003a2000005245000003
:104e2c00545200000d0a0000005300007472000080
:104e3c00656100006d4f0000706500006e3a000067
:104e4c0020530000544f0000520d00000a000000d7
:104e5c005374000072650000616d00004f7000001b
:104e6c00656e00003a2000004150000050450000e3
:104e7c000d0a000000310000323500000046000031
:104e8c00545000005374000072650000616d000006
:104e9c005772000069740000653a0000207400002d
:104eac00696d0000656f00007574000020620000e1
:104ebc0079200000736500007276000065720000b6
:104ecc002064000069730000636f00006e6e0000c8
:104edc0065630000746900006f6e00000d0a00002d
:104eec00004600005450000053740000726500002e
:104efc00616d00005772000069740000653a000093
:104f0c0020740000696d0000656f0000757400006e
:104f1c000d0a0000004600005450000053740000bd
:104f2c0072650000616d0000526500006164000054
:104f3c003a200000454f000046200000726500003a
:104f4c006163000068650000640d00000a00000049
:104f5c00465400005053000074720000656100005c
:104f6c006d52000065610000643a0000207400007e
:104f7c00696d0000656f0000757400002062000010
:104f8c0079200000736500007276000065720000e5
:104f9c002064000069730000636f00006e6e0000f7
:104fac0065630000746900006f6e00000d0a00005c
:104fbc00004600005450000053740000726500005d
:104fcc00616d000052650000616400003a20000031
:104fdc00746900006d6500006f750000740d0000b1
:104fec000a000000070c000011160000070c00005e
:104ffc0011160000070c000011160000070c000031
:10500c0011160000050900000e140000050900002f
:10501c000e140000050900000e1400000509000024
:10502c000e140000040b000010170000040b00000d
:10503c0010170000040b000010170000040b0000f8
:10504c0010170000060a00000f150000060a0000e9
:10505c000f150000060a00000f150000060a0000dc
:10506c000f15000078a400006ad7000056b70000a6
:10507c00c7e80000db70000020240000eece00002a
:10508c00bdc10000af0f00007cf500002ac6000077
:10509c00874700001346000030a80000019500006f
:1050ac0046fd0000d898000080690000aff70000b2
:1050bc00448b0000b15b0000ffff0000bed7000076
:1050cc005c89000022110000906b000093710000bd
:1050dc0098fd00008e43000079a600002108000016
:1050ec00b4490000622500001ef6000040b3000029
:1050fc0040c00000515a00005e260000aac7000004
:10510c00b6e900005d1000002fd60000531400001b
:10511c004402000081e60000a1d80000c8fb00009a
:10512c00d3e70000e6cd0000e1210000d607000027
:10513c0037c30000870d0000d5f40000ed1400000b
:10514c005a45000005e90000e3a90000f8a300009f
:10515c00effc0000d90200006f6700008a4c0000d1
:10516c002a8d000042390000faff000081f6000091
:10517c0071870000226100009d6d00000c3800005a
:10518c00e5fd000044ea0000bea40000a9cf000029
:10519c00de4b0000604b0000bbf6000070bc000052
:1051ac00bfbe0000c67e00009b280000fa2700004e
:1051bc00a1ea000085300000efd40000051d0000be
:1051cc008804000039d00000d4d90000e599000013
:1051dc00dbe60000f87c0000a21f00006556000012
:1051ec00acc400004422000029f4000097ff00002a
:1051fc002a430000a723000094ab000039a0000054
:10520c0093fc0000c35900005b65000092cc0000c9
:10521c000c8f00007df40000efff0000d15d00005a
:10522c00848500004f7e0000a86f0000e0e60000bf
:10523c002cfe00001443000001a30000a11100008b
:10524c00084e0000827e000053f7000035f200008b
:10525c003abd0000bbd20000d72a000091d3000059
:10526c0086eb0000496e0000697400006961000063
:10527c006c6900007a6900006e6700002053000022
:10528c004420000063610000726400002e2e0000b8
:10529c002e0d00000a000000534400002073000093
:1052ac006f660000747700006172000065200000da
:1052bc006d6f0000647500006c65000020690000d3
:1052cc006e69000074690000616c0000697a00006e
:1052dc0065640000210d00000a000000534400002a
:1052ec00207300006f66000074770000617200008c
:1052fc00652000006d6f0000647500006c65000097
:10530c00204e00004f540000206900006e69000020
:10531c0074690000616c0000697a0000656400002b
:10532c00210d00000a0000002e0000005344000074
:10533c00206300006172000064200000696e0000b0
:10534c0069740000696100006c6900007a650000f6
:10535c0064200000616e0000642000007265000093
:10536c0061640000792100000d0a00000045000076
:10537c00525200004f5200000a000000303a000068
:10538c0000450000525200004f520000206f0000f8
:10539c006e2000007772000069740000650a00003e
:1053ac0000450000525200004f520000206f0000d8
:1053bc006e20000053440000466900006c6500003c
:1053cc0052650000616400000a00000045520000b4
:1053dc00524f0000522000006f6e0000205300005e
:1053ec0044460000696c00006552000065610000d5
:1053fc0064410000740a0000004500005252000095
:10540c004f520000206f00006e200000534400003b
:10541c00466900006c650000526500006e6100007a
:10542c006d6500000a0000002f0000002e2e000009
:10543c000000000021210000212000004465000034
:10544c0066610000756c000074200000696e00003d
:10545c00746500007272000075700000742000000a
:10546c00686100006e6400006c6500007220000032
:10547c0021210000210d00000a0000002121000064
:10548c00212000004f730000636900006c6c000069
:10549c00617400006f72000020460000616900001a
:1054ac006c200000696e00007465000072720000d0
:1054bc007570000074200000686100006e640000cc
:1054cc006c6500007220000021210000210d0000fd
:1054dc000a0000002121000021200000416400008e
:1054ec0064720000657300007320000045720000b8
:1054fc00726f000072200000696e0000746500007d
:10550c007272000075700000742000006861000069
:10551c006e6400006c650000722000002121000008
:10552c00210d00000a0000002121000021200000b4
:10553c0053740000616300006b2000004572000092
:10554c00726f000072200000696e0000746500002c
:10555c007272000075700000742000006861000019
:10556c006e6400006c6500007220000021210000b8
:10557c00210d00000a000000212100002120000064
:10558c004d6100007468000020450000727200003c
:10559c006f720000206900006e74000065720000dc
:1055ac00727500007074000020680000616e0000cd
:1055bc00646c0000657200002021000021210000b5
:1055cc000d0a0000000000000103000005070000a8
:1055dc00090e00001012000014160000181c000028
:1055ec001e8000009a900000418e0000418f000048
:1055fc00804500004545000049490000498e0000e7
:10560c008f900000929200004f9900004f550000bf
:10561c0055590000999a00009b9c00009d9e00002b
:10562c009f410000494f000055a50000a5a60000b1
:10563c00a7a80000a9aa0000abac000021ae000096
:10564c00afb00000b1b20000b3b40000b5b60000ba
:10565c00b7b80000b9ba0000bbbc0000bdbe00006a
:10566c00bfc00000c1c20000c3c40000c5c600001a
:10567c00c7c80000c9ca0000cbcc0000cdce0000ca
:10568c00cfd00000d1d20000d3d40000d5d600007a
:10569c00d7d80000d9da0000dbdc0000ddde00002a
:1056ac00dfe00000e1e20000e3e40000e5e60000da
:1056bc00e7e80000e9ea0000ebec0000edee00008a
:1056cc00eff00000f1f20000f3f40000f5f600003a
:1056dc00f7f80000f9fa0000fbfc0000fdfe0000ea
:1056ec00ff2200002a3a00003c3e00003f7c0000f4
:1056fc007f0000002b2c00003b3d00005b5d000098
:10570c0000000000484500004c4f0000204d0000f8
:10571c0043480000504200004f410000524400003a
:10572c000d0a000000450000484c00004f2000000e
:10573c004d43000048500000424f00004152000011
:10574c00440d00000a0000004155000054480000c0
:10575c00204c00004f470000494e00000d0a00008d
:10576c00000d00000a0000004d410000494c0000f3
:10577c0020460000524f00004d3a00003c00000053
:10578c003e0d00000a00000052430000505400007f
:10579c00205400004f3a00003c000000444100003f
:1057ac00544100000d0a000000460000726f00001a
:1057bc006d3a0000200000000d0a0000546f00003c
:1057cc003a200000000d00000a430000433a00009c
:1057dc00200000000d0a000053750000626a0000f2
:1057ec0065630000743a0000200000000d0a000000
:1057fc002e0d00000a0000000d0a00002e00000013
:10580c0051550000495400000d0a00000000000032
:10581c0044690000736300006f6e00006e65000049
:10582c006374000020660000616900006c65000074
:10583c00642e00002044000069730000636f0000b8
:10584c006e6e000065630000742000006973000038
:10585c00206100006c6c00006f7700006564000034
:10586c00206f00006e6c000079200000776800004b
:10587c00656e0000206d00006f640000756c000008
:10588c006520000069730000206900006e20000094
:10589c00636f00006e6e00006563000074650000ad
:1058ac00642000007374000061740000650d00003a
:1058bc000a0000004e6f000020730000746f00009f
:1058cc00726500006420000073630000616e0000cc
:1058dc002072000065730000756c0000747300008a
:1058ec000d0a00000000000045760000656e000007
:1058fc00743a0000204300006f6e00006e650000db
:10590c0063740000696f00006e2000005375000086
:10591c00636300006573000073660000756c000023
:10592c000d0a000000450000766500006e74000052
:10593c003a200000436f00006e6e000065630000ab
:10594c00746900006f6e0000205200006565000055
:10595c0073740000616200006c69000073680000e1
:10596c00656400000d0a000000450000766500002b
:10597c006e7400003a20000053630000616e00005a
:10598c002052000065730000756c000074730000f9
:10599c002052000065610000647900002c2000009a
:1059ac0000250000640000002072000065730000f8
:1059bc00756c0000747300000d0a000000000000fc
:1059cc00466c0000797000006f72000074200000bb
:1059dc007374000061720000746900006e6700004f
:1059ec002e2e00002e00000054430000500000003a
:1059fc00556e00006578000070650000637400004f
:105a0c0065640000206500006e640000206f0000db
:105a1c0066200000707200006f6700007261000069
:105a2c006d2e00002e2e00000d0a00000049000013
:105a3c006e69000074690000616c0000697a0000f6
:105a4c00696e00006720000055440000502e0000d5
:105a5c002e2e00000d0a0000004600004c590000dc
:105a6c00000d00000a4e0000657700002049000080
:105a7c005020000041640000647200006573000057
:105a8c00733a0000200000000d0a00000000000026
